:100000000C9470010C94A1010C94A1010C94A10119
:100010000C94A1010C94A1010C94A1010C94A101D8
:100020000C94A1010C94A1010C94A1010C94A101C8
:100030000C94A1010C94A1010C94A1010C94A101B8
:100040000C94A1010C94A1010C94A1010C94A101A8
:100050000C94A1010C94A1010C94A1010C94E9074A
:100060000C94A1010C94BC140C94AC150C94A1013B
:100070000C94A1010C94A1010C94A1010C94A10178
:100080000C94A1010C94A1010C94A1010C94A10168
:100090000C94F0140C94EB150C94A1010C94D00565
:1000A0000C94A1010C94A1010C94A1010C94A10148
:1000B0000C94A1010C94A1010C94A1010C94A10138
:1000C0000C94A1010C94A1010C94A1010C94241591
:1000D0000C942A160C94A1010C9458150C946916D2
:1000E0000C94A101160719070C07100750071D07EC
:1000F000210727072B072F07350739073D0750072B
:10010000430747074B07084AD73B3BCE016E84BCE9
:10011000BFFDC12F3D6C74319ABD56833DDA3D0061
:10012000C77F11BED9E4BB4C3E916BAAAABE0000AA
:1001300000803F000C9439070C9400040C9447078E
:100140000C941D070C9419070C944B070C94111474
:100150000C9419090C9435070C940C070C948B150E
:100160000C9465140C9416070C943D070C94270707
:100170000C94CD030C940B090C94DC030C94211407
:100180000C9450070C9439040C94B2030C944A1844
:100190000C9421070C942F070C940C040C94BA03B4
:1001A0000C9410070C943A140C9443070C94DD0340
:1001B0000C945A140C94D8040C942B070000090AD0
:1001C00002080B0C0D0706030401000000000000EC
:1001D000000000000000000000000000000000001F
:1001E000000000000000000011100F0000000000DF
:1001F00000000000000000000000000000000000FF
:10020000000001021020200808102040102040802B
:1002100002010201080402010102040810204080CA
:100220008040201008040201800402018040201058
:1002300008040201080402010102040810204080A1
:10024000010204081020408005050505070508087F
:100250000808020202020A0A080804040404010150
:100260000101010101010303030303030303040765
:1002700007070C0C0C0C0C0C0C0C020202020606FC
:100280000606060606060B0B0B0B0B0B0B0B0000F2
:1002900020002300260029002C002F00320000013E
:1002A00000000301060109010000220025002800CA
:1002B0002B002E003100340002010000050108016E
:1002C0000B0100002100240027002A002D0030002F
:1002D000330001010000040107010A01D8044A1893
:1002E00011241FBECFEFD1E2DEBFCDBF00E00CBFB7
:1002F00012E0A0E0B2E0E8EDFFE300E00BBF02C0D7
:1003000007900D92A63AB107D9F726E0A6EAB2E027
:1003100001C01D92A032B207E1F712E0C0EED2E0B8
:1003200000E006C022970109FE010BBF0E94851E56
:10033000CC3DD10780E00807A9F70E940C090C9476
:10034000EA1F0C9400001F93CF93DF931F92CDB749
:10035000DEB7162FBC0186EA92E049830E94B604FC
:10036000612F86EA92E00E9439044981642F86EA6F
:1003700092E00E94390486EA92E00F90DF91CF91DB
:100380001F910C94CB04EF92FF920F931F93CF9386
:10039000DF9300D01F92CDB7DEB77C01162FBC01D2
:1003A00086EA92E02B833C8349835A830E94B604F9
:1003B000612F86EA92E00E94390486EA92E00E9468
:1003C000CB04B70186EA92E00E94B60449815A81C3
:1003D000B70186EA92E00E94A7042B81022F3C819C
:1003E000132F86EA92E00E94B203892B41F086EA3D
:1003F00092E00E94BA03F80181938F01F2CF86EA5E
:1004000092E00F900F900F900F90DF91CF911F917E
:100410000F91FF90EF900C94CB04CF93DF931F923A
:10042000CDB7DEB746EB60E180E490E00E94A30127
:1004300040E16DE080E490E00E94A3019E012F5F07
:100440003F4F41E050E060E280E490E00E94C30151
:1004500049814F7060E280E490E00E94A3019E0118
:100460002F5F3F4F41E050E065E380E490E00E9461
:10047000C3014981417F446065E380E490E00E94CC
:10048000A3010F90DF91CF91089540E855E260E01D
:1004900070E08AED93E00E94EC1686EA92E00E94FA
:1004A00078046CE072E08AED93E00E94FC090E94FF
:1004B0000D026FE272E08AED93E00C94FC094F921A
:1004C0005F926F927F928F929F92AF92BF92CF92E4
:1004D000DF92EF92FF92CF93DF93CDB7DEB72997EC
:1004E0000FB6F894DEBF0FBECDBF9E012F5F3F4F0A
:1004F00046E050E062E080E490E00E94C3016A813F
:1005000070E0762F66278981682B759567957595BC
:1005100067958091040290910502680F791F8827E2
:1005200077FD8095982F0E94BC1C4B015C016DE407
:1005300072E08AED93E00E94B10920E030E040E8EB
:1005400059E3C501B4010E949C1DAB01BC0122E02E
:1005500030E08AED93E00E944B0C60E572E08AED9A
:1005600093E00E94B1096C8170E0762F66278B8141
:10057000682B7595679575956795809102029091A6
:100580000302680F791F882777FD8095982F0E94B6
:10059000BC1C6B017C0162E572E08AED93E00E9475
:1005A000B10920E030E040E859E3C701B6010E94FC
:1005B0009C1DAB01BC0122E030E08AED93E00E947B
:1005C0004B0C60E572E08AED93E00E94B1096E8108
:1005D00070E0762F66278D81682B759567957595E8
:1005E00067958091000290910102680F791F88271A
:1005F00077FD8095982F0E94BC1C2B013C0166E57D
:1006000072E08AED93E00E94B10920E030E040E81A
:1006100059E3C301B2010E949C1DAB01BC0122E061
:1006200030E08AED93E00E944B0C60E572E08AEDC9
:1006300093E00E94FC09C701B6010E94411E6E832F
:100640007F8388879987C301B2010E94411E2B01D5
:100650003C019B01AC016E817F81888599850E9458
:10066000911B0E94031E9B01AC01C501B4010E94B5
:10067000211C0E94F51B6E837F8388879987C501A3
:10068000B4010E94411EA30192010E94911B0E948D
:10069000031E9B01AC01C701B6010E94211C0E94F0
:1006A000F51B6B017C0120E030E044E353E46E81F4
:1006B0007F81888599850E949C1D4B015C0120E00B
:1006C00030E044E353E4C701B6010E949C1D6B0176
:1006D0007C0128ED3FE049E450E4C501B4010E94EB
:1006E000211CAB01BC0122E030E08AED93E00E94C6
:1006F0004B0C6AE572E08AED93E00E94B10928EDA7
:100700003FE049E450E4C701B6010E94211CAB015F
:10071000BC0122E030E08AED93E00E944B0C6DE5D5
:1007200072E08AED93E00E94B10929960FB6F89421
:10073000DEBF0FBECDBFDF91CF91FF90EF90DF9076
:10074000CF90BF90AF909F908F907F906F905F9071
:100750004F9008950E945F026CE271E080E090E0AB
:100760000C9462088091DA0290E02091DB02821BF7
:10077000910908952091DB028091DA02281750F444
:10078000E22FF0E0E452FD4F808190E02F5F209354
:10079000DB0208958FEF9FEF0895E091DB028091D7
:1007A000DA02E81730F4F0E0E452FD4F808190E087
:1007B00008958FEF9FEF08950895E091B202F091B0
:1007C000B3023097E1F03091DB022091DA02321768
:1007D000B0F040E0242F30E02617370754F4DC0156
:1007E000A20FB31F5C91D901A452BD4F5C934F5F20
:1007F000F1CF1092DB026093DA02CB0119940895D5
:10080000E091B402F091B502309729F01092B8024D
:100810001092B70219940895CF92DF92EF92FF924F
:100820000F931F93CF93DF937C01CB018A0120911B
:10083000B602222389F0EB016B01C40ED51ECC1544
:10084000DD0569F06991D701ED91FC910190F0818E
:10085000E02DC7011995F3CF642F0E949505C801BB
:10086000DF91CF911F910F91FF90EF90DF90CF908C
:100870000895CF93DF931F92CDB7DEB769832091A0
:10088000B6022223D1F02091B702203240F021E0BD
:1008900030E0FC013383228380E090E015C080913A
:1008A000B802E82FF0E0E754FD4F998190838F5F05
:1008B0008093B8028093B70205C061E0CE01019633
:1008C0000E94950581E090E00F90DF91CF9108950F
:1008D000FC011382128248EE53E060E070E0448332
:1008E00055836683778383E792E0918380830895BD
:1008F0001092DB021092DA021092B8021092B70244
:100900000C94DC04CF93DF93EC01862F0E94FA0451
:1009100080E094E00E94B3058DED93E00E94AE0567
:10092000CE01DF91CF910C9478040C948204862F31
:10093000413208F040E26CED72E00E94FE04109239
:10094000DB028093DA02089521E00C94970421E001
:100950000C9497040C94970481E08093B602609302
:10096000D9021092B8021092B70208950C94AC0408
:100970000F93062F21E04091B70269EB72E080915E
:10098000D9020E9442051092B8021092B70210924A
:10099000B6020F91089561E00C94B8047093B3020D
:1009A0006093B20208957093B5026093B402089503
:1009B00086EA92E00C9468041092690381E08093C7
:1009C00067031092660361E084E10E948A0761E098
:1009D00085E10E948A07E9EBF0E080818E7F8083C9
:1009E00080818D7F808388E48093B80085E4809344
:1009F000BC000895880F8093BA000895413208F032
:100A00003FC0909169039111FCCF91E090936903ED
:100A1000209367032FEF2093FC0210924103240FD1
:100A2000209340039093680390916803880F892B6B
:100A30008093680380916603813041F410926603CD
:100A4000809168038093BB0085EC01C085EE8093A4
:100A5000BC00809169038130E1F3809141038417E8
:100A600010F44091410322E433E0FB01D9018A2FC5
:100A7000821B841718F48D918193F9CF842F0895E8
:100A800080E008950F93413208F046C090916903C9
:100A90009111FCCF92E090936903009367039FEF5D
:100AA0009093FC021092410340934003FB0162E4E7
:100AB00073E0DB019A2F961B941718F491919D9384
:100AC000F9CF1092680390916803880F892B809367
:100AD000680380916603813041F41092660380912F
:100AE00068038093BB0085EC01C085EE8093BC0059
:100AF000222321F0809169038230E1F38091FC028E
:100B00008F3F61F08091FC02803251F08091FC02B5
:100B1000803341F483E007C081E005C080E003C07A
:100B200082E001C084E00F910895613298F4209131
:100B30006903243089F460931E03FC0180E293E092
:100B4000DC012A2F281B261718F421912D93F9CFA9
:100B500080E0089581E0089582E008959093630312
:100B600080936203089590936503809364030895CE
:100B7000882311F085EC01C085E88093BC000895BE
:100B800085ED8093BC008091BC0084FDFCCF109269
:100B90006903089585EC8093BC0010926903089561
:100BA0001F920F920FB60F9211240BB60F922F9334
:100BB0003F934F935F936F937F938F939F93AF93E5
:100BC000BF93EF93FF938091B900887F803609F43B
:100BD0009CC068F5883209F45BC090F4803109F458
:100BE00054C038F4882309F4F5C0883009F44DC0A6
:100BF000F5C0883109F44CC0803209F45DC0EEC004
:100C0000803409F468C048F4803309F455C088334F
:100C100009F0E4C08093FC02A8C0803509F44FC0FD
:100C2000883509F45DC0883409F0D8C0D5C088394A
:100C300009F4C6C0A8F4883709F467C038F48836C8
:100C400009F463C0803709F460C0C8C0883809F46B
:100C5000B7C0803909F45FC0803809F0BFC05BC0FD
:100C6000803B09F485C038F4803A09F466C0883ABC
:100C700009F47EC0B3C0803C09F4A6C0883C09F4E6
:100C8000A3C0883B09F489C0A9C08091680310C043
:100C90009091410380914003981770F5E0914103D2
:100CA00081E08E0F80934103F0E0EE5BFC4F80818A
:100CB0008093BB0085EC85C08093FC028DC0E091E1
:100CC000410381E08E0F809341038091BB00F0E0EF
:100CD000EE5BFC4F808390914103809140036DC097
:100CE000E091410381E08E0F809341038091BB002E
:100CF000F0E0EE5BFC4F80838091670381116CC054
:100D000081E08093660384EA60C083E08093690396
:100D10001092FD02CFCF8091FD02803208F050C0CA
:100D2000E091FD0281E08E0F8093FD028091BB0077
:100D3000F0E0E250FD4F8083BDCF8091FD02803214
:100D400030F4E091FD02F0E0E250FD4F10820E948D
:100D5000C0056091FD0270E0E0916203F0916303D1
:100D60008EEF92E019951092FD020E94CA0536C0DE
:100D700084E08093690310921F0310921E03E09198
:100D80006403F0916503199580911E03811105C0DC
:100D900081E080931E0310922003E0911F0381E005
:100DA0008E0F80931F03F0E0E05EFC4F8081809304
:100DB000BB0090911F0380911E03981708F47ACF0F
:100DC00085E88093BC000AC085EC8093BC0010923B
:100DD000690304C01092FC020E94C005FF91EF91CC
:100DE000BF91AF919F918F917F916F915F914F9143
:100DF0003F912F910F900BBE0F900FBE0F901F9041
:100E0000189590E0FC013197E131F10508F048C0F8
:100E1000EE58FF4F0C947F1E809180008F7703C0A7
:100E2000809180008F7D80938000089584B58F77B6
:100E300002C084B58F7D84BD08958091B0008F7706
:100E400003C08091B0008F7D8093B00008958091A1
:100E500090008F7707C0809190008F7D03C08091B4
:100E60009000877F8093900008958091A0008F77F5
:100E700007C08091A0008F7D03C08091A000877F74
:100E80008093A0000895809120018F7707C0809102
:100E900020018F7D03C080912001877F80932001F6
:100EA0000895CF93DF9390E0FC01EE5FFD4F249116
:100EB000FC01E85BFD4F8491882349F190E0880FA5
:100EC000991FFC01EE53FD4FA591B49188559D4F9C
:100ED000FC01C591D4919FB7611108C0F8948C9121
:100EE000209582238C93888182230AC0623051F43A
:100EF000F8948C91322F309583238C938881822BA8
:100F0000888304C0F8948C91822B8C939FBFDF91CF
:100F1000CF9108950F931F93CF93DF931F92CDB777
:100F2000DEB7282F30E0F901E454FE4F8491F90137
:100F3000EE5FFD4F1491F901E85BFD4F0491002332
:100F4000C9F0882321F069830E9401076981E02F9D
:100F5000F0E0EE0FFF1FE855FD4FA591B4919FB74C
:100F6000F8948C91611103C01095812301C0812BED
:100F70008C939FBF0F90DF91CF911F910F91089598
:100F8000CF93DF93282F30E0F901E454FE4F849192
:100F9000F901EE5FFD4FD491F901E85BFD4FC4917B
:100FA000CC2391F081110E940107EC2FF0E0EE0FAD
:100FB000FF1FE257FD4FA591B4912C912D2381E0A5
:100FC00090E021F480E002C080E090E0DF91CF91DA
:100FD00008951F920F920FB60F9211242F933F93F3
:100FE0008F939F93AF93BF9380916B0390916C030A
:100FF000A0916D03B0916E0330916A0323E0230F3B
:101000002D3720F40196A11DB11D05C026E8230F40
:101010000296A11DB11D20936A0380936B039093E8
:101020006C03A0936D03B0936E0380916F03909156
:101030007003A0917103B09172030196A11DB11DBF
:1010400080936F0390937003A0937103B093720326
:10105000BF91AF919F918F913F912F910F900FBEB4
:101060000F901F9018952FB7F89460916B037091B3
:101070006C0380916D0390916E032FBF08953FB76D
:10108000F89480916F0390917003A0917103B091D7
:10109000720326B5A89B05C02F3F19F00196A11D2C
:1010A000B11D3FBF6627782F892F9A2F620F711DC0
:1010B000811D911D42E0660F771F881F991F4A9579
:1010C000D1F70895CF92DF92EF92FF92CF93DF9303
:1010D0006B017C010E943F08EB01C114D104E104C3
:1010E000F10479F00E943F086C1B7D0B683E734051
:1010F000A0F381E0C81AD108E108F108C851DC4F1B
:10110000ECCFDF91CF91FF90EF90DF90CF900895DB
:101110000197009739F0880F991F880F991F029740
:101120000197F1F70895789484B5826084BD84B501
:10113000816084BD85B5826085BD85B5816085BDD2
:10114000EEE6F0E0808181608083E1E8F0E01082EB
:10115000808182608083808181608083E0E8F0E02C
:10116000808181608083E1EBF0E080818460808316
:10117000E0EBF0E0808181608083E1E9F0E0808154
:1011800082608083808181608083E0E9F0E08081FB
:1011900081608083E1EAF0E08081826080838081E9
:1011A00081608083E0EAF0E0808181608083E1E219
:1011B000F1E0808182608083808181608083E0E2D1
:1011C000F1E0808181608083EAE7F0E080818460E3
:1011D0008083808182608083808181608083808140
:1011E000806880831092C10008950C9480190C943B
:1011F00080190C94181A0C94181AFC0181E090E0E4
:101200002081222311F080E090E0089521E0FC018C
:1012100020830895089508950E9493080E9445022E
:10122000CBE8D5E10E94AA032097E1F30E948B1539
:10123000F9CFCF92DF92EF92FF920F931F93CF934C
:10124000DF936C017A01EB01E60EF71E00E010E07F
:10125000CE15DF0561F06991D601ED91FC91019009
:10126000F081E02DC6011995080F191FF1CFC801B3
:10127000DF91CF911F910F91FF90EF90DF90CF9072
:1012800008956115710581F0DB010D900020E9F7EB
:10129000AD0141505109461B570BDC01ED91FC910A
:1012A0000280F381E02D199480E090E00895EF92A0
:1012B000FF920F931F93CF93DF938C01FB01C0E04C
:1012C000D0E064917F018FEFE81AF80A662361F09D
:1012D000D801ED91FC910190F081E02DC8011995A4
:1012E000C80FD91FF701EDCFCE01DF91CF911F912C
:1012F0000F91FF90EF900895AF92BF92CF92DF923F
:10130000EF92FF920F931F93CF93DF937C016B01BA
:10131000C0E0D0E000E010E0D60114968D919C91E1
:101320001597C817D90788F4D701ED91FC91A080D3
:10133000B180BE01C6010E941E11682FC701F501D0
:101340001995080F191F2196E7CFC801DF91CF919A
:101350001F910F91FF90EF90DF90CF90BF90AF90D3
:1013600008950C944109DC01ED91FC910190F0810C
:10137000E02D1994DB01ED91FC9111970190F08122
:10138000E02DBC01CD0119940F931F93CF93DF93F0
:10139000EC016DE00E94B3098C016AE0CE010E946D
:1013A000B309800F911FDF91CF911F910F91089585
:1013B0000F931F93CF93DF93EC010E9457098C0189
:1013C000CE010E94C409800F911FDF91CF911F9120
:1013D0000F9108950F931F93CF93DF93EC010E9419
:1013E0007C098C01CE010E94C409800F911FDF91FE
:1013F000CF911F910F9108950F931F93CF93DF9378
:10140000EC010E9441098C01CE010E94C409800FA9
:10141000911FDF91CF911F910F9108950F931F930B
:10142000CF93DF93EC010E94B3098C01CE010E949F
:10143000C409800F911FDF91CF911F910F910895E3
:101440000F931F93CF93DF93EC010E94BA098C0195
:10145000CE010E94C409800F911FDF91CF911F918F
:101460000F9108958F929F92AF92BF92CF92DF9289
:10147000EF92FF920F931F93CF93DF93CDB7DEB719
:10148000A1970FB6F894DEBF0FBECDBF7C01C42E6E
:10149000E52FCB01D22E19A221E02D1510F02AE064
:1014A000D22E8E010F5D1F4F8D2C912CA12CB12CB3
:1014B0006C2D7E2FA50194010E945D1E8C2DD29E65
:1014C00080191124015011098A3014F4805D01C083
:1014D000895CF8018083211531054105510521F012
:1014E000C22EE32FCA01E4CFB801C7010E9441090F
:1014F000A1960FB6F894DEBF0FBECDBFDF91CF919E
:101500001F910F91FF90EF90DF90CF90BF90AF9021
:101510009F908F900895CF92DF92EF92FF920F935A
:101520001F93CF93DF93EC016A017B0121153105F5
:1015300079F4E881F9810190F081E02D642FDF9149
:10154000CF911F910F91FF90EF90DF90CF90199462
:101550002A303105E9F477FF1AC06DE20E94B30921
:101560008C0144275527BA014C195D096E097F0982
:101570002AE0CE010E94320A800F911FDF91CF91A5
:101580001F910F91FF90EF90DF90CF9008952AE088
:10159000B701A601CE01DF91CF911F910F91FF906E
:1015A000EF90DF90CF900C94320A9A01AB0166273E
:1015B00057FD6095762F0C948B0A0F931F93CF9352
:1015C000DF93EC019A01AB01662757FD6095762FFA
:1015D0000E948B0A8C01CE010E94C409800F911FCA
:1015E000DF91CF911F910F9108950F931F93CF9388
:1015F000DF93EC010E948B0A8C01CE010E94C4098A
:10160000800F911FDF91CF911F910F9108952115A8
:10161000310541F4DC01ED91FC910190F081E02D68
:10162000642F19940C94320A9A01462F50E060E01E
:1016300070E00C94070B0F931F93CF93DF93EC0193
:101640009A01462F50E060E070E00E94070B8C0189
:10165000CE010E94C409800F911FDF91CF911F918D
:101660000F9108959A01AB0160E070E00C94070BB4
:101670000F931F93CF93DF93EC019A01AB0160E0CE
:1016800070E00E94070B8C01CE010E94C409800FFC
:10169000911FDF91CF911F910F9108950F931F9389
:1016A000CF93DF93EC010E94070B8C01CE010E94C7
:1016B000C409800F911FDF91CF911F910F91089561
:1016C0004F925F926F927F928F929F92AF92BF9252
:1016D000CF92DF92EF92FF920F931F93CF93DF93FE
:1016E000EC016A017B01B22E9A01AB01C701B60180
:1016F0000E94441E882319F06FE772E027C026017C
:101700003701E89477F82FEF3FEF4FE75FE7C3012A
:10171000B2010E94441E81110DC02FEF3FEF4FE731
:101720005FE7C301B2010E941D1C18161CF463E898
:1017300072E00CC02FEF3FEF4FE75FE4C701B60147
:101740000E94911D1816ACF467E872E0CE01DF919B
:10175000CF911F910F91FF90EF90DF90CF90BF90AE
:10176000AF909F908F907F906F905F904F900C9470
:1017700041092FEF3FEF4FE75FECC701B6010E9431
:101780001D1C87FDE1CF20E030E0A901C701B601B3
:101790000E941D1C87FF0AC06DE2CE010E94B309A2
:1017A0008C01F7FAF094F7F8F09402C000E010E032
:1017B000A12C60E070E080E09FE3AB1441F020E0FA
:1017C00030E040E251E40E94211CA394F6CF9B013B
:1017D000AC01C701B6010E94911B6B017C010E9404
:1017E0008E1C2B013C010E94BA1C9B01AC01C7015D
:1017F000B6010E94901B6B017C012AE0B301A2019B
:10180000CE010E94320A080F191FBB2039F06BE885
:1018100072E0CE010E944109080F191F7B2C77202E
:1018200041F120E030E040E251E4C701B6010E94FE
:101830009C1D6B017C010E94891C4B01AA2497FC12
:10184000A094BA2C2AE030E0B501A401CE010E9498
:101850008B0A080F191FC501B4010E94BC1C9B0113
:10186000AC01C701B6010E94901B6B017C017A9408
:10187000D6CFC801DF91CF911F910F91FF90EF90CC
:10188000DF90CF90BF90AF909F908F907F906F90A0
:101890005F904F9008950C94600B0F931F93CF931C
:1018A000DF93EC010E94600B8C01CE010E94C40901
:1018B000800F911FDF91CF911F910F9108950C948C
:1018C000401F0C94561F0C94B21F0C94851FFC01F2
:1018D000808191810C94181ACF93DF93EC01888159
:1018E0009981009711F00E94181A198218821D829E
:1018F0001C821B821A82DF91CF9108950F931F9350
:10190000CF93DF93EC018B016F5F7F4F88819981CB
:101910000E94A71A009731F0998388831B830A835A
:1019200081E001C080E0DF91CF911F910F91089578
:10193000CF93DF93EC0188819981892B29F08A81EB
:101940009B818617970760F4CE010E947E0C882346
:1019500041F08C819D81892B19F4E881F9811082F5
:1019600081E0DF91CF910895EF92FF920F931F9343
:10197000CF93DF93EC017B018A01BA010E94980C9E
:10198000811104C0CE010E946C0C07C01D830C8322
:10199000B701888199810E94F71ECE01DF91CF9116
:1019A0001F910F91FF90EF900895FC01118210821A
:1019B000138212821582148216826115710559F004
:1019C000FB0101900020E9F7AF0141505109461B8E
:1019D000570B0C94B40C0895CF93DF93EC01FB01EB
:1019E0008617970761F0608171816115710529F093
:1019F000448155810E94B40C02C00E946C0CCE013F
:101A0000DF91CF910895FC0111821082138212821E
:101A10001582148216820C94EC0CCF93DF93EC01A8
:101A20006115710561F0FB0101900020E9F7AF013C
:101A300041505109461B570B0E94B40C02C00E9432
:101A40006C0CCE01DF91CF910895CF93DF931F925D
:101A50001F92CDB7DEB7FC01118210821382128271
:101A600015821482168269831A82BE016F5F7F4FCE
:101A70000E940D0D0F900F90DF91CF9108950F935D
:101A80001F93CF93DF93CDB7DEB729970FB6F894A6
:101A9000DEBF0FBECDBF8C01862FF80111821082F0
:101AA0001382128215821482168250E0BE016F5F8B
:101AB0007F4F90E00E94B21FBE016F5F7F4FC80151
:101AC0000E940D0D29960FB6F894DEBF0FBECDBF54
:101AD000DF91CF911F910F9108950F931F93CF9393
:101AE000DF93CDB7DEB762970FB6F894DEBF0FBEB7
:101AF000CDBF8C01CB01F8011182108213821282BA
:101B000015821482168250E0BE016F5F7F4F0E94E3
:101B1000401FBE016F5F7F4FC8010E940D0D62968E
:101B20000FB6F894DEBF0FBECDBFDF91CF911F91EE
:101B30000F9108950F931F93CF93DF93CDB7DEB727
:101B400061970FB6F894DEBF0FBECDBF8C01CB01FD
:101B5000F801118210821382128215821482168279
:101B600050E0BE016F5F7F4F0E94B21FBE016F5FEA
:101B70007F4FC8010E940D0D61960FB6F894DEBF2D
:101B80000FBECDBFDF91CF911F910F9108950F939D
:101B90001F93CF93DF93CDB7DEB7A2970FB6F8941C
:101BA000DEBF0FBECDBF8C01CB01BA01F80111829F
:101BB00010821382128215821482168230E0AE01E6
:101BC0004F5F5F4F0E94561FBE016F5F7F4FC8017E
:101BD0000E940D0DA2960FB6F894DEBF0FBECDBFCA
:101BE000DF91CF911F910F9108950F931F93CF9382
:101BF000DF93CDB7DEB7A1970FB6F894DEBF0FBE67
:101C0000CDBF8C01CB01BA01F80111821082138281
:101C1000128215821482168230E0AE014F5F5F4F50
:101C20000E94851FBE016F5F7F4FC8010E940D0D8E
:101C3000A1960FB6F894DEBF0FBECDBFDF91CF9156
:101C40001F910F910895EF92FF920F931F93CF93DF
:101C5000DF93EC017B010C811D816115710511F48D
:101C600080E016C04115510591F0040F151FB80111
:101C70000E94980C8823A1F3288139818C819D8151
:101C8000B701820F931F0E94F71E1D830C8381E012
:101C9000DF91CF911F910F91FF90EF900895FB017D
:101CA00044815581608171810C94230E6115710509
:101CB00059F0FB0101900020E9F7AF0141505109B3
:101CC000461B570B0C94230E80E00895CF93DF93AF
:101CD0001F921F92CDB7DEB769831A8241E050E0B0
:101CE000BE016F5F7F4F0E94230E0F900F90DF9118
:101CF000CF910895EF92FF920F931F93CF93DF93AD
:101D000000D01F92CDB7DEB77C01862F4AE050E0AD
:101D10008E010F5F1F4FB80190E00E94401FF80135
:101D200001900020E9F7AF0141505109401B510BD0
:101D3000B801C7010E94230E0F900F900F900F90D3
:101D4000DF91CF911F910F91FF90EF900895EF9247
:101D5000FF920F931F93CF93DF93CDB7DEB72797F3
:101D60000FB6F894DEBF0FBECDBF7C01CB014AE0B9
:101D700050E08E010F5F1F4FB8010E94401FF80115
:101D800001900020E9F7AF0141505109401B510B70
:101D9000B801C7010E94230E27960FB6F894DEBF44
:101DA0000FBECDBFDF91CF911F910F91FF90EF90AC
:101DB0000895EF92FF920F931F93CF93DF9300D07C
:101DC00000D0CDB7DEB77C01CB014AE050E08E01F8
:101DD0000F5F1F4FB8010E94B21FF8010190002051
:101DE000E9F7AF0141505109401B510BB801C70140
:101DF0000E94230E26960FB6F894DEBF0FBECDBF0D
:101E0000DF91CF911F910F91FF90EF900895EF9286
:101E1000FF920F931F93CF93DF93CDB7DEB72C972D
:101E20000FB6F894DEBF0FBECDBF7C01CB01BA0167
:101E30002AE030E08E010F5F1F4FA8010E94561F5D
:101E4000F80101900020E9F7AF0141505109401B12
:101E5000510BB801C7010E94230E2C960FB6F894BF
:101E6000DEBF0FBECDBFDF91CF911F910F91FF90CD
:101E7000EF900895EF92FF920F931F93CF93DF930C
:101E8000CDB7DEB72B970FB6F894DEBF0FBECDBF30
:101E90007C01CB01BA012AE030E08E010F5F1F4FB9
:101EA000A8010E94851FF80101900020E9F7AF0109
:101EB00041505109401B510BB801C7010E94230E2C
:101EC0002B960FB6F894DEBF0FBECDBFDF91CF913A
:101ED0001F910F91FF90EF900895CF93DF93EC0146
:101EE000FB0144815581608171810E94230E811123
:101EF00003C0CE010E946C0CCE01DF91CF910895FA
:101F0000CF93DF93EC016115710569F0FB0101903E
:101F10000020E9F7AF0141505109461B570B0E94C1
:101F2000230E811103C0CE010E946C0CCE01DF9103
:101F3000CF910895CF93DF93EC010E94660E81113B
:101F400003C0CE010E946C0CCE01DF91CF910895A9
:101F5000CF93DF93EC010E947A0E811103C0CE0172
:101F60000E946C0CCE01DF91CF910895CF93DF9347
:101F7000EC010E94A70E811103C0CE010E946C0CDF
:101F8000CE01DF91CF910895CF93DF93EC010E94B2
:101F9000D90E811103C0CE010E946C0CCE01DF91DD
:101FA000CF910895CF93DF93EC010E94070F811129
:101FB00003C0CE010E946C0CCE01DF91CF91089539
:101FC000CF93DF93EC010E943A0F811103C0CE0141
:101FD0000E946C0CCE01DF91CF910895CF93DF93D7
:101FE000DC01ED91FC91EB01A881B981309711F0F2
:101FF0001097C9F4109759F0EB012C813D81232BE8
:1020000031F08C9190E091958195910914C03097B1
:1020100081F0DC0114968D919C911597892B49F0E4
:10202000808190E008C0BD01CF01DF91CF910C9479
:10203000EE1E80E090E0DF91CF910895FC01448195
:102040005581FB01248135814217530741F40E94D9
:10205000EE0F21E0892B09F020E0822F089580E027
:102060000895FC0124813581232B31F421E0611591
:102070007105A1F0FB0108C0FC018081918161150F
:10208000710531F421E0FC018081882339F005C01D
:102090000E94EE1E21E0892B09F020E0822F089596
:1020A0000E94EE0F892F881F8827881F08950E949D
:1020B000EE0F21E0181619060CF020E0822F08958B
:1020C0000E94EE0F21E0181619060CF420E0822F72
:1020D00008950E94EE0F892F8095881F8827881FFA
:1020E0000895EF92FF920F931F93CF93DF9386177C
:1020F000970731F1FC0124813581FB014481558131
:1021000024173507F9F4232BD9F0FC010081118144
:10211000FB01C081D181F80181918F01882381F079
:10212000992787FD90950E94B81E7C018991992777
:1021300087FD90950E94B81EE816F90661F302C06B
:1021400081E001C080E0DF91CF911F910F91FF905E
:10215000EF900895FA01DB0114964D915C9115976B
:10216000DC0114962D913C911597241B350B2E17ED
:102170003F0788F08D919C91009769F0DB016D918C
:102180007C916115710539F08E0F9F1F0E94FE1E14
:1021900021E0892B09F020E0822F0895FC01448181
:1021A0005581FB01248135814217530720F040E01F
:1021B00050E00C94AA1080E00895FC018481958180
:1021C000DB0114964D915C9115978417950798F053
:1021D000208131812115310571F06D917C9161155E
:1021E000710549F0841B950B820F931F0E94EE1E10
:1021F00021E0892B09F020E0822F0895DC0114965C
:102200002D913C9115976217730728F4ED91FC917D
:10221000E60FF71F40830895FC01848195816817BC
:10222000790720F480819181009729F4109273033B
:1022300083E793E00895860F971F0895FC0124819A
:1022400035816217730748F480819181009729F0E6
:10225000FC01E60FF71F8081089580E008950C943B
:102260001E110F931F93CF93DF93EB01411551057F
:10227000E9F02097D9F0FC016481758126173707B2
:10228000A0F4621B730B8A010150110960177107DA
:1022900008F48B01FC0160817181620F731FA8013A
:1022A000CE010E940C1FC00FD11F1882DF91CF9169
:1022B0001F910F910895CF93DF93FC018481958145
:1022C0004817590778F4C081D181772767FD709549
:1022D000CE01840F951F0E94E31E009719F08C1BFE
:1022E0009D0B02C08FEF9FEFDF91CF91089540E0EB
:1022F00050E00C945B11CF93DF93FC0184819581B6
:102300004817590778F4C081D181FB016081718140
:10231000CE01840F951F0E94261F009719F08C1B79
:102320009D0B02C08FEF9FEFDF91CF91089540E0AA
:1023300050E00C947B11DF92EF92FF920F931F936A
:10234000CF93DF93EC018C819D814817590718F0DA
:102350008FEF9FEF1BC08A010F5F1F4FE881F9814C
:10236000E00FF11FD0801082E880F980772767FDA9
:102370007095C7010E941B1FF701E00FF11FD0826B
:10238000009731F328813981821B930BDF91CF9124
:102390001F910F91FF90EF90DF900895FC01448111
:1023A0005581415051090C949B11AF92BF92CF922D
:1023B000DF92EF92FF920F931F93CF93DF937B01F6
:1023C000EA01FB01448155814115510569F1FC0188
:1023D000248135812115310539F12417350720F184
:1023E000C217D30710F0E9012197FC010081118188
:1023F000C801AA24AA94BB24BA946801CC0EDD1E9D
:10240000C816D906A0F0F701608171810E94261FCD
:10241000009769F09C01201B310BC217D30708F409
:10242000950101965901ECCF8FEF9FEF01C0C501D7
:10243000DF91CF911F910F91FF90EF90DF90CF90A0
:10244000BF90AF900895FC0144815581FB01248128
:102450003581421B530B0C94D511BF92CF92DF9262
:10246000EF92FF920F931F93CF93DF936C017B0149
:10247000EA0189012417350720F48D2FE901042F83
:10248000182F6EE572E0C6010E94D50CD701149694
:102490008D919C9115978C179D07C8F08017910717
:1024A00008F48C01D701ED91FC911197E00FF11F19
:1024B000B08010826D917C916C0F7D1FC6010E94CF
:1024C0000D0DD701ED91FC91E00FF11FB082C60117
:1024D000DF91CF911F910F91FF90EF90DF90CF9000
:1024E000BF900895CF93DF93EC01FB0124813581E8
:1024F0000E942D12CE01DF91CF910895DC01ED9164
:10250000FC91309729F40895861301C040833196D9
:1025100080818111F9CF08952F923F924F925F925F
:102520006F927F928F929F92AF92BF92CF92DF92E3
:10253000EF92FF920F931F93CF93DF93EC015B0118
:102540007A014C805D804114510409F4C5C0FB013F
:10255000648075806114710409F4BEC0FA01C480FE
:10256000D580C618D70808811981C114D104C1F4D7
:10257000F50160817181C8010E94261FEC0100975E
:1025800009F4AAC0F7016081718144815581CE01AF
:102590000E94C81EF701048115810C0F1D1FE8CF92
:1025A000D7FC05C0FB0120803180420143C04801B7
:1025B000F50160817181C8010E94261F2C010097DE
:1025C00019F13201601A710AA301B801C4010E9415
:1025D000C81E680C791CF7016081718144815581A6
:1025E000C3010E94C81EF70184809580860C971C49
:1025F000F50104811581040D151D8C819D818C0DC3
:102600009D1D9D838C83D4CFB801C401DF91CF91F0
:102610001F910F91FF90EF90DF90CF90BF90AF9000
:102620009F908F907F906F905F904F903F902F90F2
:102630000C94F71EB101C8010E94261F009731F0CB
:102640008C01060D171D8C0C9D1CF4CF8414950471
:1026500009F442C08A819B818815990530F4B40140
:10266000CE010E947E0C8823B9F14C815D814150DE
:10267000510957FD31C0B501CE010E94D5118C0121
:1026800097FD2AC088819981F50124813581200F29
:10269000311F820F931F4C815D81421B530BBC0184
:1026A0008C0D9D1D0E94D11E8C819D818C0D9D1DC8
:1026B0009D838C83E881F981E80FF91F108288815E
:1026C0009981F7016081718144815581800F911F4B
:1026D0000E94C81EA801CBCFDF91CF911F910F910F
:1026E000FF90EF90DF90CF90BF90AF909F908F9032
:1026F0007F906F905F904F903F902F900895CF9371
:10270000DF93FC01C081D181209751F0888188231B
:1027100039F0992787FD90950E94B81E8993F6CFCE
:10272000DF91CF910895CF93DF93FC01C081D181D8
:10273000209751F08881882339F0992787FD90955B
:102740000E94C01E8993F6CFDF91CF910895AF927A
:10275000BF92CF92DF92EF92FF920F931F93CF938E
:10276000DF937C01DC01CD90DC901197C114D10482
:1027700009F441C01496CD91DC9115972097D9F1B9
:1027800056018501BFEFAB1ABB0AF801808199277A
:1027900087FD90950E94B01E892B99F72197CC0D4B
:1027A000DD1D8881992787FD90950E94B01E892B99
:1027B00091F4AE014F5F5F4F401B510BD70115964F
:1027C0005C934E931497C016D10650F4B801C6011D
:1027D0000E94C81E05C0C017D10758F32197E1CF4A
:1027E000D701ED91FC91119714968D919C911597BD
:1027F000E80FF91F1082DF91CF911F910F91FF9089
:10280000EF90DF90CF90BF90AF900895FC01808152
:102810009181009711F00C94891E60E070E0CB016B
:102820000895FC0124853585F901E05CFF4F808126
:102830009181329620813181821B930B8F7399276E
:102840000895FC0184859585FC01E05CFF4F408183
:1028500051813296208131814217530741F0019016
:10286000F081E02DE80FF91F808190E008958FEF4F
:102870009FEF0895FC0184859585FC01E05CFF4F86
:10288000408151813296208131814217530779F07E
:10289000A081B181A80FB91F8C91208131812F5F58
:1028A0003F4F2F7333273183208390E008958FEFBC
:1028B0009FEF0895FC0181A1882329F0A489B5899F
:1028C0008C9186FFFBCF11A20895CF93DF93FC017B
:1028D00026853785D901A05CBF4F8D919C911197BA
:1028E00001968F739927E901CE5BDF4F48815981AB
:1028F00084179507D9F30D90BC91A02DA20FB31F9B
:102900006C93A685B785A05CBF4F11969C938E9360
:10291000A689B7892C9181E090E0078C02C0880FCE
:10292000991F0A94E2F7282B2C9381E081A3048855
:10293000F589E02D80818064808381E090E0DF91E3
:10294000CF910895FB01E05CFF4F208131812F5F23
:102950003F4F2F733327DB01AE5BBF4F4D915C912F
:102960002417350739F0A081B181A60FB71F8C93CA
:1029700031832083089508951F920F920FB60F920E
:1029800011240BB60F922F933F934F935F936F9346
:102990007F938F939F93AF93BF93EF93FF93809118
:1029A000C00082FD07C08091C60068ED75E00E94FE
:1029B000A21402C08091C600FF91EF91BF91AF9128
:1029C0009F918F917F916F915F914F913F912F9147
:1029D0000F900BBE0F900FBE0F901F90189508958B
:1029E0001F920F920FB60F9211240BB60F922F93D6
:1029F0003F934F935F936F937F938F939F93AF9387
:102A0000BF93EF93FF938091C80082FD07C0809130
:102A1000CE0060E575E00E94A21402C08091CE0055
:102A2000FF91EF91BF91AF919F918F917F916F91A6
:102A30005F914F913F912F910F900BBE0F900FBE62
:102A40000F901F90189508951F920F920FB60F9236
:102A500011240BB60F922F933F934F935F936F9375
:102A60007F938F939F93AF93BF93EF93FF93809147
:102A7000D00082FD07C08091D60068EC74E00E940F
:102A8000A21402C08091D600FF91EF91BF91AF9147
:102A90009F918F917F916F915F914F913F912F9176
:102AA0000F900BBE0F900FBE0F901F9018950895BA
:102AB0001F920F920FB60F9211240BB60F922F9305
:102AC0003F934F935F936F937F938F939F93AF93B6
:102AD000BF93EF93FF938091300182FD07C08091F7
:102AE000360160E474E00E94A21402C080913601B5
:102AF000FF91EF91BF91AF919F918F917F916F91D6
:102B00005F914F913F912F910F900BBE0F900FBE91
:102B10000F901F9018958AED93E00E941114892B55
:102B200011F00E94BB1488EB93E00E941114892BD2
:102B300011F00E94EF1486E993E00E941114892B92
:102B400011F00E94231584E793E00E941114892B51
:102B500011F00C94571508951F920F920FB60F9213
:102B600011240BB60F922F933F938F939F93EF9364
:102B7000FF932091D4053091D5058091D605909191
:102B8000D7052817390731F48091C1008F7D8093D4
:102B9000C10014C0E091D605F091D705EC56FA4F6C
:102BA00020818091D6059091D70501968F73992742
:102BB0009093D7058093D6052093C600FF91EF919F
:102BC0009F918F913F912F910F900BBE0F900FBE51
:102BD0000F901F9018951F920F920FB60F9211240D
:102BE0000BB60F922F933F938F939F93EF93FF9387
:102BF00020914C0530914D0580914E0590914F05E7
:102C00002817390731F48091C9008F7D8093C9005E
:102C100014C0E0914E05F0914F05E45FFA4F20811A
:102C200080914E0590914F0501968F73992790934F
:102C30004F0580934E052093CE00FF91EF919F9119
:102C40008F913F912F910F900BBE0F900FBE0F9061
:102C50001F9018951F920F920FB60F9211240BB66A
:102C60000F922F933F938F939F93EF93FF93209116
:102C7000C4043091C5048091C6049091C7042817FC
:102C8000390731F48091D1008F7D8093D10014C039
:102C9000E091C604F091C704EC57FB4F208180916E
:102CA000C6049091C70401968F7399279093C70427
:102CB0008093C6042093D600FF91EF919F918F914E
:102CC0003F912F910F900BBE0F900FBE0F901F9052
:102CD00018951F920F920FB60F9211240BB60F92F8
:102CE0002F933F938F939F93EF93FF9320913C04F7
:102CF00030913D0480913E0490913F04281739079C
:102D000031F4809131018F7D8093310114C0E091C5
:102D10003E04F0913F04E450FC4F208180913E043A
:102D200090913F0401968F73992790933F0480936D
:102D30003E0420933601FF91EF919F918F913F9137
:102D40002F910F900BBE0F900FBE0F901F901895F4
:102D50008F929F92AF92BF92CF92DF92EF92FF92AB
:102D60000F931F93CF93DF93CDB7DEB7FC01138290
:102D7000128288EE93E0A0E0B0E084839583A6837E
:102D8000B78389E992E09183808375876487578749
:102D90004687318B208B138B028BF58AE48AD78A86
:102DA000C68AB18EA08E938E828E8889848F8989FF
:102DB000858F8A89868F8B89878F8C8980A3DF9105
:102DC000CF911F910F91FF90EF90DF90CF90BF9028
:102DD000AF909F908F900895CF92DF92EF92FF92E5
:102DE000CF93DF93EC016A017B01411581EE580717
:102DF00061057105F9F0EC89FD8981E090E008A09A
:102E000002C0880F991F0A94E2F7808360E079E09E
:102E10008DE390E0A70196010E945D1E21503109CB
:102E2000410951095695479537952795211580E118
:102E3000380798F0EC89FD89108260E874E88EE12B
:102E400090E0A70196010E945D1E215031094109C1
:102E500051095695479537952795E889F989308323
:102E6000EA89FB89208319A2EE89FF89408181E0EC
:102E700090E09C010C8C02C0220F331F0A94E2F7F1
:102E8000422B4083EE89FF8940819C010D8C02C05A
:102E9000220F331F0A94E2F7422B4083EE89FF8909
:102EA00040819C010E8C02C0220F331F0A94E2F76E
:102EB000422B4083EE89FF8920810F8C02C0880F4E
:102EC000991F0A94E2F7809582238083DF91CF9146
:102ED000FF90EF90DF90CF900895BF92CF92DF9256
:102EE000EF92FF92CF93DF93EC016A017B01B22E48
:102EF000411581EE580761057105F9F0EC89FD89EE
:102F000081E090E008A002C0880F991F0A94E2F7C0
:102F1000808360E079E08DE390E0A70196010E9454
:102F20005D1E215031094109510956954795379544
:102F30002795211580E1380798F0EC89FD891082EA
:102F400060E874E88EE190E0A70196010E945D1EA2
:102F500021503109410951095695479537952795D3
:102F6000E889F9893083EA89FB892083E88DF98D26
:102F7000B082EE89FF89408181E090E09C010C8C59
:102F800002C0220F331F0A94E2F7422B4083EE89DE
:102F9000FF8940819C010D8C02C0220F331F0A94CF
:102FA000E2F7422B4083EE89FF8940819C010E8C21
:102FB00002C0220F331F0A94E2F7422B4083EE89AE
:102FC000FF8920810F8C02C0880F991F0A94E2F7B5
:102FD000809582238083DF91CF91FF90EF90DF90E7
:102FE000CF90BF900895CF93DF93FC01868597859E
:102FF000DC01A05CBF4FEC01CE5BDF4F4D915C91DB
:1030000011972881398142175307C1F7A689B789DB
:103010004C9181E090E09C01048C02C0220F331F90
:103020000A94E2F7209524232C93A689B7894C9122
:103030009C01058C02C0220F331F0A94E2F72095F1
:1030400024232C93A689B7894C919C01068C02C03D
:10305000220F331F0A94E2F7209524232C93A6898C
:10306000B7892C91078C02C0880F991F0A94E2F748
:10307000809582238C9384859585FC01EE5BFF4FC0
:1030800020813181329731832083DF91CF91089560
:1030900081E00895CF931092DD031092DC0388EE57
:1030A00093E0A0E0B0E08093DE039093DF03A09371
:1030B000E003B093E10329E932E03093DB0320938E
:1030C000DA0348ED55E05093E7034093E60344E903
:1030D00055E05093E9034093E80345EC50E05093EA
:1030E000EB034093EA0344EC50E05093ED0340932C
:1030F000EC0340EC50E05093EF034093EE0341ECBF
:1031000050E05093F1034093F00342EC50E05093B1
:10311000F3034093F20346EC50E05093F5034093E1
:10312000F403C4E0C093F603F3E0F093F703E7E0A1
:10313000E093F80375E07093F90361E06093FA039C
:103140001092BB031092BA038093BC039093BD030B
:10315000A093BE03B093BF033093B9032093B80389
:1031600040E555E05093C5034093C4034CE055E05F
:103170005093C7034093C6034DEC50E05093C903EE
:103180004093C8034CEC50E05093CB034093CA03E8
:1031900048EC50E05093CD034093CC0349EC50E011
:1031A0005093CF034093CE034AEC50E05093D103A9
:1031B0004093D0034EEC50E05093D3034093D2039E
:1031C000C093D403F093D503E093D6037093D70351
:1031D0006093D803109299031092980380939A03F6
:1031E00090939B03A0939C03B0939D03309397030C
:1031F0002093960348EC54E05093A3034093A2031A
:1032000044E854E05093A5034093A40345ED50E0F7
:103210005093A7034093A60344ED50E05093A903B5
:103220004093A80340ED50E05093AB034093AA03B2
:1032300041ED50E05093AD034093AC0342ED50E0BC
:103240005093AF034093AE0346ED50E05093B1036B
:103250004093B003C093B203F093B303E093B4037D
:103260007093B5036093B6031092770310927603C0
:103270008093780390937903A0937A03B0937B03B0
:10328000309375032093740380E494E0909381035A
:10329000809380038CEF93E0909383038093820369
:1032A00085E391E0909385038093840384E391E028
:1032B000909387038093860380E391E09093890342
:1032C0008093880381E391E090938B0380938A033A
:1032D00082E391E090938D0380938C0386E391E0E9
:1032E00090938F0380938E03C0939003F093910388
:1032F000E09392037093930360939403CF910895A6
:10330000CF93DF938230910510F482E090E0E0915A
:103310001E06F0911F0620E030E0A0E0B0E03097FC
:1033200039F14081518148175907B8F048175907BA
:1033300071F482819381109729F013969C938E9358
:1033400012972CC090931F0680931E0627C021154C
:10335000310531F04217530718F0A901DB0101C014
:10336000EF019A01BD01DF010280F381E02DD7CF8B
:1033700021153105F9F0281B390B2430310580F473
:103380008A819B816115710521F0FB019383828302
:1033900004C090931F0680931E06FE01329644C01F
:1033A000FE01E20FF31F819391932250310939837B
:1033B00028833AC020911C0630911D06232B41F42E
:1033C000209108023091090230931D0620931C06BB
:1033D00020910602309107022115310541F42DB7E5
:1033E0003EB740910A0250910B02241B350BE0912D
:1033F0001C06F0911D06E217F307A0F42E1B3F0BED
:103400002817390778F0AC014E5F5F4F2417350756
:1034100048F04E0F5F1F50931D0640931C0681938A
:10342000919302C0E0E0F0E0CF01DF91CF910895E9
:10343000CF93DF93009709F487C0FC013297138282
:103440001282C0911E06D0911F06209781F4208120
:103450003181280F391F80911C0690911D0682171B
:10346000930779F5F0931D06E0931C066DC0DE010D
:1034700020E030E0AE17BF0750F412964D915C91FA
:1034800013979D014115510509F1DA01F3CFB3837B
:10349000A28340815181840F951F8A179B0771F485
:1034A0008D919C911197840F951F02969183808333
:1034B00012968D919C9113979383828321153105E8
:1034C00029F4F0931F06E0931E063EC0D90113961F
:1034D000FC93EE9312974D915D91A40FB51FEA17DF
:1034E000FB0779F480819181840F951F0296D901A1
:1034F00011969C938E938281938113969C938E93C5
:103500001297E0E0F0E08A819B81009719F0FE01BC
:10351000EC01F9CFCE01029628813981820F931FE9
:1035200020911C0630911D062817390769F4309741
:1035300029F410921F0610921E0602C013821282F6
:10354000D0931D06C0931C06DF91CF9108956F9212
:103550007F928F929F92AF92BF92CF92DF92EF9223
:10356000FF920F931F93CF93DF93EC01CB01209732
:1035700081F4DF91CF911F910F91FF90EF90DF9039
:10358000CF90BF90AF909F908F907F906F900C9452
:103590008019FE01E60FF71F9E0122503109E21744
:1035A000F30708F4ACC0D9010D911C9111970617CF
:1035B0001707B8F00530110508F49FC0A801445062
:1035C00051094617570708F498C002501109061B05
:1035D000170B019311936D937C93CF010E94181ADE
:1035E0008CC05B01A01AB10A4E01800E911EA09101
:1035F0001E06B0911F06612C712C60E070E01097E0
:1036000009F449C0A815B905C9F5ED90FC901197CA
:10361000670142E0C40ED11CCA14DB0478F14701F3
:103620008A189B08640142E0C40ED11C1296BC901B
:1036300012971396AC91B5E0CB16D10440F0B2824C
:10364000A38391828082D9018D939C9309C00E5FE0
:103650001F4F0E0D1F1DF90111830083EB2DFA2F53
:103660006115710531F0DB011396FC93EE9312970F
:1036700044C0F0931F06E0931E063FC06D917C91FD
:1036800011976616770608F43B01BD0112960D905E
:10369000BC91A02DB4CF60911C0670911D066815D9
:1036A0007905E9F468167906D0F440910602509144
:1036B00007024115510541F44DB75EB760910A020A
:1036C00070910B02461B570BE417F507C0F4F093FB
:1036D0001D06E0931C06F901918380830EC00E94B1
:1036E00080197C01009759F0A801BE010E94C81EF4
:1036F000CE010E94181AC70104C0CE0102C080E0AA
:1037000090E0DF91CF911F910F91FF90EF90DF90AC
:10371000CF90BF90AF909F908F907F906F900895C3
:103720005058BB27AA270ED0C2C1B3D130F0B8D1B0
:1037300020F031F49F3F11F41EF483C10EF4E095A4
:10374000E7FB79C1E92FC4D180F3BA176207730789
:103750008407950718F071F49EF5DCC10EF4E0952E
:103760000B2EBA2FA02D0B01B90190010C01CA013B
:10377000A0011124FF27591B99F0593F50F4503EE6
:1037800068F11A16F040A22F232F342F4427585FD8
:10379000F3CF469537952795A795F0405395C9F7F0
:1037A0007EF41F16BA0B620B730B840BBAF09150A8
:1037B000A1F0FF0FBB1F661F771F881FC2F70EC047
:1037C000BA0F621F731F841F48F48795779567951A
:1037D000B795F7959E3F08F0B3CF9395880F08F003
:1037E0009927EE0F979587950895DF93DD27B92FD9
:1037F000BF7740E85FE31616170648075B0710F42B
:10380000D92F93D19F938F937F936F933AD2E6E012
:10381000F1E01AD14CD12F913F914F915F9198D106
:10382000DD2349F09058A2EA2AED3FE049EC5FE33E
:10383000D0785D2787DFDF913AC1D9D008F481E0E5
:1038400008950CD034C12CD140F023D130F021F4B4
:103850005F3F19F0F0C051115EC1F3C039D198F348
:103860009923C9F35523B1F3951B550BBB27AA2701
:1038700062177307840738F09F5F5F4F220F331F73
:10388000441FAA1FA9F333D00E2E3AF0E0E830D03F
:1038900091505040E695001CCAF729D0FE2F27D042
:1038A000660F771F881FBB1F261737074807AB0710
:1038B000B0E809F0BB0B802DBF01FF2793585F4F85
:1038C0002AF09E3F510568F0B6C025C15F3FECF37A
:1038D000983EDCF3869577956795B795F7959F5F4A
:1038E000C9F7880F911D9695879597F90895E1E09E
:1038F000660F771F881FBB1F621773078407BA07FD
:1039000020F0621B730B840BBA0BEE1F88F7E09557
:10391000089504D06894B111FEC00895E1D088F0F4
:103920009F5790F0B92F9927B751A0F0D1F0660FAB
:10393000771F881F991F1AF0BA95C9F712C0B130C6
:1039400081F0E8D0B1E00895E5C0672F782F88278F
:10395000B85F39F0B93FCCF3869577956795B39505
:10396000D9F73EF490958095709561957F4F8F4F74
:103970009F4F0895E89409C097FB3EF49095809579
:10398000709561957F4F8F4F9F4F9923A9F0F92F25
:1039900096E9BB279395F695879577956795B795A3
:1039A000F111F8CFFAF4BB0F11F460FF1BC06F5F89
:1039B0007F4F8F4F9F4F16C0882311F096E911C09B
:1039C000772321F09EE8872F762F05C0662371F0BC
:1039D00096E8862F70E060E02AF09A95660F771FD0
:1039E000881FDAF7880F9695879597F90895990FAC
:1039F0000008550FAA0BE0E8FEEF16161706E807B9
:103A0000F907C0F012161306E407F50798F0621BD9
:103A1000730B840B950B39F40A2661F0232B242BAE
:103A2000252B21F408950A2609F4A140A6958FEFCD
:103A3000811D811D089597F99F6780E870E060E01F
:103A400008959FEF80EC0895DF93CF931F930F931A
:103A5000FF92EF92DF927B018C01689405C0DA2E11
:103A6000EF0176D0FE01E894A5912591359145911D
:103A70005591AEF3EF0166DEFE019701A801DA94DD
:103A800079F7DF90EF90FF900F911F91CF91DF9129
:103A9000089500240A9416161706180609060895B4
:103AA00000240A9412161306140605060895092E1A
:103AB0000394000C11F4882352F0BB0F40F4BF2B89
:103AC00011F460FF04C06F5F7F4F8F4F9F4F0895C9
:103AD00057FD9058440F551F59F05F3F71F04795BF
:103AE000880F97FB991F61F09F3F79F087950895A4
:103AF000121613061406551FF2CF4695F1DF08C0C3
:103B0000161617061806991FF1CF869571056105DF
:103B100008940895E894BB2766277727CB0197F987
:103B2000089565DF08F48FEF08959B01AC0160E014
:103B300070E080E89FE385CE0BD0B9CFAADF28F0F4
:103B4000AFDF18F0952309F076CF7BCF1124E3CFB8
:103B5000BFDFA0F3959FD1F3950F50E0551F629FF3
:103B6000F001729FBB27F00DB11D639FAA27F00DD6
:103B7000B11DAA1F649F6627B00DA11D661F829FFD
:103B80002227B00DA11D621F739FB00DA11D621FE2
:103B9000839FA00D611D221F749F3327A00D611DFF
:103BA000231F849F600D211D822F762F6A2F1124E1
:103BB0009F5750408AF0E1F088234AF0EE0FFF1F34
:103BC000BB1F661F771F881F91505040A9F79E3F6B
:103BD000510570F030CF9FCF5F3FECF3983EDCF3A0
:103BE000869577956795B795F795E7959F5FC1F7A8
:103BF000FE2B880F911D9695879597F9089511F4DE
:103C00000EF41FCF45C06CDFD0F39923D9F3CEF368
:103C10009F57550B87FF4AD00024A0E640EA900149
:103C200080585695979528F4805C660F771F881FFB
:103C300020F026173707480730F4621B730B840BFC
:103C4000202931294A2BA695179407942025312540
:103C50004A2758F7660F771F881F20F02617370767
:103C6000480730F4620B730B840B200D311D411D8E
:103C7000A09581F7B901842F9158880F9695879563
:103C800008959B01AC0158CFB2DE880B990B0895C3
:103C90009F3F31F0915020F4879577956795B795C0
:103CA000880F911D9695879597F9089591505040EA
:103CB000660F771F881FD2F70895A1E21A2EAA1B5C
:103CC000BB1BFD010DC0AA1FBB1FEE1FFF1FA217CC
:103CD000B307E407F50720F0A21BB30BE40BF50BC9
:103CE000661F771F881F991F1A9469F76095709552
:103CF000809590959B01AC01BD01CF010895EE0F19
:103D0000FF1F0590F491E02D19940790F691E02D96
:103D100019941F93FC0199278827BC01E8941191FD
:103D20001032E9F3193010F01E30C8F31B3251F095
:103D30001D3249F4689406C00E94701F610F711D06
:103D4000811D911D119110531A30B0F33EF49095DE
:103D50008095709561957F4F8F4F9F4F1F9108956C
:103D6000911125C1803219F089508550D0F70895FE
:103D70009111089581548A5108F4805E855A0895FE
:103D80009111089581568A5108F4805285580895FA
:103D9000FB01DC0102C001900D9241505040D8F768
:103DA00008956817790768F4FB01DC01E40FF51F3B
:103DB000A40FB51F02C002900E9241505040D8F798
:103DC00008950C94C81EFC018191861721F0882368
:103DD000D9F7992708953197CF010895FB01DC01A8
:103DE0008D91019080190110D9F3990B0895FB0171
:103DF000DC0101900D920020E1F70895FB01DC0148
:103E00004150504030F08D910190801919F40020FC
:103E1000B9F7881B990B0895FB01DC014150504014
:103E200048F001900D920020C9F701C01D92415049
:103E30005040E0F70895FC0181E090E00190061603
:103E400009F4CF010020D1F701970895FB015191AA
:103E50005523A9F0BF01DC014D9145174111E1F750
:103E600059F4CD010190002049F04D9140154111C8
:103E7000C9F3FB014111EFCF81E090E00197089574
:103E80004532510520F4423010F00C944B1FFB01D9
:103E90001082CB010895BB274A3031F4992322F4D4
:103EA000BDE2909581959F4F0C94BE1F2532310540
:103EB00020F4223010F00C94611FFA011082CA0124
:103EC0000895BB272A3051F4992342F4BDE290951E
:103ED0008095709561957F4F8F4F9F4F0C94911FE8
:103EE000592F482F372F262F660F771F881F991FAE
:103EF000660F771F881F991F620F731F841F951FFE
:103F0000660F771F881F991F08952532310520F409
:103F1000223010F00C94901FFA011082CA0108950B
:103F2000BB27FA01A62F6217710581059105330B96
:103F300030FB66F0AA27660F771F881F991FAA1FFC
:103F4000A21710F0A21B63953850A9F7A05DAA3301
:103F500008F0A95DA19336F7B111B1931082CA019F
:103F60000C94DA1F4532510520F4423010F00C94C5
:103F7000BD1FFB011082CB010895BB27FB01552714
:103F8000AA27880F991FAA1FA41710F0A41B8395B6
:103F90005051B9F7A05DAA3308F0A95DA19300972D
:103FA00079F7B111B1931192CB010C94DA1F9927D3
:103FB00088270895DC01FC01672F71917723E1F7D1
:103FC000329704C07C916D9370836291AE17BF07E6
:083FD000C8F30895F894FFCF37
:103FD800E9FF2F001F0000002006800044656D6F78
:103FE80020737461727465642C20696E69746961E8
:103FF8006C697A696E672073656E736F72730053AC
:10400800656E736F72732068617665206265656E90
:1040180020696E697469616C697A656400783D002D
:1040280067002C793D002C7A3D002C20000A000006
:104038000000000B0919090B090B090B090B0900F2
:1040480000000039040C04B203BA03CD03DC036E8C
:10405800616E00696E66006F7666002E00000000D3
:10406800000B091909000000006514190911143A18
:064078001421145A14008B
:00000001FF
