:100000000C9459010C948A010C948A010C948A0175
:100010000C948A010C948A010C948A010C948A0134
:100020000C948A010C948A010C948A010C948A0124
:100030000C948A010C948A010C948A010C948A0114
:100040000C948A010C948A010C948A010C948A0104
:100050000C948A010C948A010C948A010C94680710
:100060000C948A010C943B140C942B150C948A016B
:100070000C948A010C948A010C948A010C948A01D4
:100080000C948A010C948A010C948A010C948A01C4
:100090000C946F140C946A150C948A010C944F05FF
:1000A0000C948A010C948A010C948A010C948A01A4
:1000B0000C948A010C948A010C948A010C948A0194
:1000C0000C948A010C948A010C948A010C94A31458
:1000D0000C94A9150C948A010C94D7140C94E8156F
:1000E0000C948A01950698068B068F06CF069C060F
:1000F000A006A606AA06AE06B406B806BC06CF063B
:10010000C206C606CA060C94B4060C9439030C94B5
:1001100098080C94D9130C94CA060C9457040C94A8
:100120008B060C9490130C949C060C948F060C94E4
:10013000A0130C947F030C9495060C94C9170C948F
:100140005B030C94C6060C94E4130C94A6060C9462
:10015000B8030C94BC060C948A080C944C030C94C1
:10016000A0060C940A150C94B9130C9498060C94E0
:1001700031030C94B8060C94CF060C948B030C94AA
:10018000AA060C945C030C94C2060C94AE06000004
:10019000090A02080B0C0D07060304010000000009
:1001A000000000000000000000000000000000004F
:1001B0000000000000000000000011100F0000000F
:1001C000000000000000000000000000000000002F
:1001D000000000000102102020080810204010201C
:1001E00040800201020108040201010204081020FB
:1001F00040808040201008040201800402018040F9
:100200002010080402010804020101020408102061
:1002100040800102040810204080050505050705FF
:1002200008080808020202020A0A08080404040472
:10023000010101010101010103030303030303039E
:10024000040707070C0C0C0C0C0C0C0C020202022D
:1002500006060606060606060B0B0B0B0B0B0B0B16
:10026000000020002300260029002C002F0032006F
:100270000001000003010601090100002200250021
:1002800028002B002E00310034000201000005017F
:1002900008010B0100002100240027002A002D0086
:1002A0003000330001010000040107010A01570476
:1002B000C91711241FBECFEFD1E2DEBFCDBF00E0D2
:1002C0000CBF12E0A0E0B2E0EAE7FDE300E00BBF04
:1002D00002C007900D92A436B107D9F725E0A4E635
:1002E000B2E001C01D92A63EB207E1F712E0C2EBF8
:1002F000D2E000E006C022970109FE010BBF0E9478
:10030000561DCE3AD10780E00807A9F70E948B0856
:100310000C94BB1E0C9400001F93CF93DF931F928D
:10032000CDB7DEB7162FBC018CE692E049830E9460
:100330003504612F8CE692E00E94B8034981642F56
:100340008CE692E00E94B8038CE692E00F90DF9179
:10035000CF911F910C944A0440E06EE388E690E050
:100360000E948C0147E065E188E690E00E948C01E4
:100370004EE166E188E690E00E948C0140E067E192
:1003800088E690E00C948C0140E855E260E070E073
:1003900080EA93E00E946B168CE692E00E94F703DD
:1003A0000C94AC01EF92FF920F931F93CF93DF93C6
:1003B00000D01F92CDB7DEB77C01162FBC018CE6B2
:1003C00092E02B833C8349835A830E943504612F3A
:1003D0008CE692E00E94B8038CE692E00E944A0408
:1003E000B7018CE692E00E94350449815A81B70139
:1003F0008CE692E00E9426042B81022F3C81132F71
:100400008CE692E00E943103892B41F08CE692E069
:100410000E943903F80181938F01F2CF8CE692E0BC
:100420000F900F900F900F90DF91CF911F910F9130
:10043000FF90EF900C944A040F931F93CF93DF9398
:10044000CDB7DEB728970FB6F894DEBF0FBECDBF8D
:100450008C019E012F5F3F4F48E050E06BE188E642
:1004600090E00E94D2012B8130E0322F22278C8134
:10047000282B8091040290910502280F391FF80162
:10048000318320832D8130E0322F22278E81282B4B
:100490008091020290910302280F391F3383228337
:1004A0002F8130E0322F22278885282B809100026F
:1004B00090910102280F391F35832483898190E0B0
:1004C000982F88272A81822B9783868328960FB6B8
:1004D000F894DEBF0FBECDBFDF91CF911F910F917A
:1004E0000895CF93DF93CDB7DEB728970FB6F89472
:1004F000DEBF0FBECDBFCE0101960E941C026981F6
:100500007A81882777FD8095982F0E94131C20E020
:1005100030E046E651E40E94781B0E94E01B709395
:100520006B0260936A026B817C81882777FD8095DE
:10053000982F0E94131C20E030E046E651E40E9410
:10054000781B0E94E01B70936902609368026D81C2
:100550007E81882777FD8095982F0E94131C20E0CC
:1005600030E046E651E40E94781B0E94E01B709345
:100570006702609366026F81788560577C4C88279C
:1005800077FD8095982F0E94131C20E030E04CE806
:1005900053E40E94781B20E030E04CE052E40E94DB
:1005A000101B0E94E01B70936502609364026CE074
:1005B00072E080EA93E00E94300960916A027091D3
:1005C0006B024AE050E080EA93E00E94540A60E146
:1005D00072E080EA93E00E943009609168027091B5
:1005E00069024AE050E080EA93E00E94540A64E124
:1005F00072E080EA93E00E94300960916602709197
:1006000067024AE050E080EA93E00E94540A68E101
:1006100072E080EA93E00E94300960916402709178
:1006200065024AE050E080EA93E00E94540A6FEDD0
:1006300080EA93E00E9432096CE172E080EA93E084
:100640000E947B0962E370E080E090E00E94E10795
:1006500028960FB6F894DEBF0FBECDBFDF91CF91C5
:1006600008958091A00290E02091A102821B91093F
:1006700008952091A1028091A002281750F4E22F42
:10068000F0E0EE55FD4F808190E02F5F2093A102B6
:1006900008958FEF9FEF0895E091A1028091A0024D
:1006A000E81730F4F0E0EE55FD4F808190E00895BA
:1006B0008FEF9FEF08950895E0917802F09179020D
:1006C0003097E1F03091A1022091A0023217B0F0F2
:1006D00040E0242F30E02617370754F4DC01A20F46
:1006E000B31F5C91D901AE55BD4F5C934F5FF1CF05
:1006F0001092A1026093A002CB0119940895E09199
:100700007A02F0917B02309729F010927E021092CB
:100710007D0219940895CF92DF92EF92FF920F938A
:100720001F93CF93DF937C01CB018A0120917C0240
:10073000222389F0EB016B01C40ED51ECC15DD051B
:1007400069F06991D701ED91FC910190F081E02D64
:10075000C7011995F3CF642F0E941405C801DF91DA
:10076000CF911F910F91FF90EF90DF90CF90089560
:10077000CF93DF931F92CDB7DEB7698320917C02C0
:100780002223D1F020917D02203240F021E030E0A0
:10079000FC013383228380E090E015C080917E02CB
:1007A000E82FF0E0E158FD4F998190838F5F8093AF
:1007B0007E0280937D0205C061E0CE0101960E9419
:1007C000140581E090E00F90DF91CF910895FC0136
:1007D0001382128248EE53E060E070E04483558358
:1007E0006683778382E392E09183808308951092F9
:1007F000A1021092A00210927E0210927D020C942F
:100800005B04CF93DF93EC01862F0E9479048FE77E
:1008100093E00E9432058CE593E00E942D05CE0105
:10082000DF91CF910C94F7030C940104862F413291
:1008300008F040E262EA72E00E947D041092A10298
:100840008093A002089521E00C94160421E00C94FA
:1008500016040C94160481E080937C0260939F023E
:1008600010927E0210927D0208950C942B040F9337
:10087000062F21E040917D026FE772E080919F0298
:100880000E94C10410927E0210927D0210927C029E
:100890000F91089561E00C9437047093790260938E
:1008A0007802089570937B0260937A0208958CE633
:1008B00092E00C94E70310922F0381E080932D03C4
:1008C00010922C0361E084E10E94090761E085E158
:1008D0000E940907E9EBF0E080818E7F80838081B0
:1008E0008D7F808388E48093B80085E48093BC008A
:1008F0000895880F8093BA000895413208F03FC0F0
:1009000090912F039111FCCF91E090932F032093AE
:100910002D032FEF2093C20210920703240F209380
:10092000060390932E0390912E03880F892B8093BA
:100930002E0380912C03813041F410922C0380917E
:100940002E038093BB0085EC01C085EE8093BC0034
:1009500080912F038130E1F380910703841710F415
:100960004091070328E033E0FB01D9018A2F821B65
:10097000841718F48D918193F9CF842F089580E026
:1009800008950F93413208F046C090912F039111C2
:10099000FCCF92E090932F0300932D039FEF909351
:1009A000C2021092070340930603FB0168E073E064
:1009B000DB019A2F961B941718F491919D93F9CF10
:1009C00010922E0390912E03880F892B80932E0373
:1009D00080912C03813041F410922C0380912E03DE
:1009E0008093BB0085EC01C085EE8093BC00222380
:1009F00021F080912F038230E1F38091C2028F3F7A
:100A000061F08091C202803251F08091C202803345
:100A100041F483E007C081E005C080E003C082E0CC
:100A200001C084E00F910895613298F420912F0362
:100A3000243089F46093E402FC0186EE92E0DC014C
:100A40002A2F281B261718F421912D93F9CF80E027
:100A5000089581E0089582E008959093290380939A
:100A60002803089590932B0380932A0308958823E5
:100A700011F085EC01C085E88093BC00089585EDF8
:100A80008093BC008091BC0084FDFCCF10922F03AA
:100A9000089585EC8093BC0010922F0308951F9257
:100AA0000F920FB60F9211240BB60F922F933F9314
:100AB0004F935F936F937F938F939F93AF93BF9366
:100AC000EF93FF938091B900887F803609F49CC032
:100AD00068F5883209F45BC090F4803109F454C0A1
:100AE00038F4882309F4F5C0883009F44DC0F5C006
:100AF000883109F44CC0803209F45DC0EEC0803406
:100B000009F468C048F4803309F455C0883309F00B
:100B1000E4C08093C202A8C0803509F44FC0883574
:100B200009F45DC0883409F0D8C0D5C0883909F40B
:100B3000C6C0A8F4883709F467C038F4883609F4C9
:100B400063C0803709F460C0C8C0883809F4B7C0F2
:100B5000803909F45FC0803809F0BFC05BC0803BBA
:100B600009F485C038F4803A09F466C0883A09F47B
:100B70007EC0B3C0803C09F4A6C0883C09F4A3C081
:100B8000883B09F489C0A9C080912E0310C09091C0
:100B9000070380910603981770F5E091070381E041
:100BA0008E0F80930703F0E0E85FFC4F8081809315
:100BB000BB0085EC85C08093C2028DC0E091070325
:100BC00081E08E0F809307038091BB00F0E0E85F27
:100BD000FC4F808390910703809106036DC0E091E4
:100BE000070381E08E0F809307038091BB00F0E044
:100BF000E85FFC4F808380912D0381116CC081E000
:100C000080932C0384EA60C083E080932F031092CA
:100C1000C302CFCF8091C302803208F050C0E09170
:100C2000C30281E08E0F8093C3028091BB00F0E08D
:100C3000EC53FD4F8083BDCF8091C302803230F4EE
:100C4000E091C302F0E0EC53FD4F10820E943F059B
:100C50006091C30270E0E0912803F091290384ECD5
:100C600092E019951092C3020E94490536C084E0B3
:100C700080932F031092E5021092E402E0912A0380
:100C8000F0912B0319958091E402811105C081E058
:100C90008093E4021092E602E091E50281E08E0F7B
:100CA0008093E502F0E0EA51FD4F80818093BB0024
:100CB0009091E5028091E402981708F47ACF85E8D4
:100CC0008093BC000AC085EC8093BC0010922F0377
:100CD00004C01092C2020E943F05FF91EF91BF91A4
:100CE000AF919F918F917F916F915F914F913F91C4
:100CF0002F910F900BBE0F900FBE0F901F90189565
:100D000090E0FC013197E131F10508F048C0EE5860
:100D1000FF4F0C94501D809180008F7703C080910D
:100D200080008F7D80938000089584B58F7702C006
:100D300084B58F7D84BD08958091B0008F7703C006
:100D40008091B0008F7D8093B000089580919000D5
:100D50008F7707C0809190008F7D03C080919000B5
:100D6000877F8093900008958091A0008F7707C0BF
:100D70008091A0008F7D03C08091A000877F809329
:100D8000A0000895809120018F7707C080912001F5
:100D90008F7D03C080912001877F8093200108957B
:100DA000CF93DF9390E0FC01EC52FE4F2491FC01C5
:100DB000E65EFD4F8491882349F190E0880F991FEA
:100DC000FC01EC56FD4FA591B49186589D4FFC0156
:100DD000C591D4919FB7611108C0F8948C9120956A
:100DE00082238C93888182230AC0623051F4F89464
:100DF0008C91322F309583238C938881822B88832A
:100E000004C0F8948C91822B8C939FBFDF91CF917B
:100E100008950F931F93CF93DF931F92CDB7DEB743
:100E2000282F30E0F901E257FE4F8491F901EC528E
:100E3000FE4F1491F901E65EFD4F04910023C9F0C5
:100E4000882321F069830E9480066981E02FF0E009
:100E5000EE0FFF1FE658FD4FA591B4919FB7F89490
:100E60008C91611103C01095812301C0812B8C935B
:100E70009FBF0F90DF91CF911F910F910895CF9356
:100E8000DF93282F30E0F901E257FE4F8491F901FA
:100E9000EC52FE4FD491F901E65EFD4FC491CC2394
:100EA00091F081110E948006EC2FF0E0EE0FFF1F01
:100EB000E05AFD4FA591B4912C912D2381E090E053
:100EC00021F480E002C080E090E0DF91CF910895AE
:100ED0001F920F920FB60F9211242F933F938F936F
:100EE0009F93AF93BF938091310390913203A09170
:100EF0003303B09134033091300323E0230F2D37B7
:100F000020F40196A11DB11D05C026E8230F02960D
:100F1000A11DB11D209330038093310390933203C0
:100F2000A0933303B093340380913503909136033B
:100F3000A0913703B09138030196A11DB11D809394
:100F4000350390933603A0933703B0933803BF91D2
:100F5000AF919F918F913F912F910F900FBE0F9066
:100F60001F9018952FB7F894609131037091320358
:100F700080913303909134032FBF08953FB7F894C5
:100F80008091350390913603A0913703B0913803D7
:100F900026B5A89B05C02F3F19F00196A11DB11DD4
:100FA0003FBF6627782F892F9A2F620F711D811DF1
:100FB000911D42E0660F771F881F991F4A95D1F750
:100FC0000895CF92DF92EF92FF92CF93DF936B0160
:100FD0007C010E94BE07EB01C114D104E104F104BD
:100FE00079F00E94BE076C1B7D0B683E7340A0F336
:100FF00081E0C81AD108E108F108C851DC4FECCFF4
:10100000DF91CF91FF90EF90DF90CF9008950197FF
:10101000009739F0880F991F880F991F0297019741
:10102000F1F70895789484B5826084BD84B58160B9
:1010300084BD85B5826085BD85B5816085BDEEE6E0
:10104000F0E0808181608083E1E8F0E010828081BF
:1010500082608083808181608083E0E8F0E080812D
:1010600081608083E1EBF0E0808184608083E0EB4D
:10107000F0E0808181608083E1E9F0E0808182603E
:101080008083808181608083E0E9F0E080818160FD
:101090008083E1EAF0E080818260808380818160EA
:1010A0008083E0EAF0E0808181608083E1E2F1E02A
:1010B000808182608083808181608083E0E2F1E0D2
:1010C000808181608083EAE7F0E0808184608083B2
:1010D000808182608083808181608083808180685C
:1010E00080831092C10008950C94FF180C94FF188F
:1010F0000C9497190C949719FC0181E090E02081E1
:10110000222311F080E090E0089521E0FC0120838B
:101110000895089508950E9412080E94C401CAE02B
:10112000D5E10E9471022097E1F30E940A15F9CFE0
:10113000CF92DF92EF92FF920F931F93CF93DF93A3
:101140006C017A01EB01E60EF71E00E010E0CE150F
:10115000DF0561F06991D601ED91FC910190F0817C
:10116000E02DC6011995080F191FF1CFC801DF91B5
:10117000CF911F910F91FF90EF90DF90CF90089546
:101180006115710581F0DB010D900020E9F7AD01DB
:1011900041505109461B570BDC01ED91FC91028037
:1011A000F381E02D199480E090E00895EF92FF9292
:1011B0000F931F93CF93DF938C01FB01C0E0D0E02E
:1011C00064917F018FEFE81AF80A662361F0D80175
:1011D000ED91FC910190F081E02DC8011995C80FA7
:1011E000D91FF701EDCFCE01DF91CF911F910F9164
:1011F000FF90EF900895AF92BF92CF92DF92EF925F
:10120000FF920F931F93CF93DF937C016B01C0E09C
:10121000D0E000E010E0D60114968D919C911597D6
:10122000C817D90788F4D701ED91FC91A080B1804F
:10123000BE01C6010E949D10682FC701F5011995D6
:10124000080F191F2196E7CFC801DF91CF911F9199
:101250000F91FF90EF90DF90CF90BF90AF900895E7
:101260000C94C008DC01ED91FC910190F081E02D1F
:101270001994DB01ED91FC9111970190F081E02D23
:10128000BC01CD0119940F931F93CF93DF93EC0111
:101290006DE00E9432098C016AE0CE010E943209A1
:1012A000800F911FDF91CF911F910F9108950F93A0
:1012B0001F93CF93DF93EC010E94D6088C01CE01DF
:1012C0000E944309800F911FDF91CF911F910F91D1
:1012D00008950F931F93CF93DF93EC010E94FB08B7
:1012E0008C01CE010E944309800F911FDF91CF91A5
:1012F0001F910F9108950F931F93CF93DF93EC01EC
:101300000E94C0088C01CE010E944309800F911FEA
:10131000DF91CF911F910F9108950F931F93CF935A
:10132000DF93EC010E9432098C01CE010E94430937
:10133000800F911FDF91CF911F910F9108950F930F
:101340001F93CF93DF93EC010E9439098C01CE01EA
:101350000E944309800F911FDF91CF911F910F9140
:1013600008958F929F92AF92BF92CF92DF92EF92A9
:10137000FF920F931F93CF93DF93CDB7DEB7A19763
:101380000FB6F894DEBF0FBECDBF7C01C42EE52F93
:10139000CB01D22E19A221E02D1510F02AE0D22E79
:1013A0008E010F5D1F4F8D2C912CA12CB12C6C2D1B
:1013B0007E2FA50194010E942E1D8C2DD29E801996
:1013C0001124015011098A3014F4805D01C0895C38
:1013D000F8018083211531054105510521F0C22E08
:1013E000E32FCA01E4CFB801C7010E94C008A1964B
:1013F0000FB6F894DEBF0FBECDBFDF91CF911F9126
:101400000F91FF90EF90DF90CF90BF90AF909F90A3
:101410008F900895CF92DF92EF92FF920F931F93D8
:10142000CF93DF93EC016A017B012115310579F43B
:10143000E881F9810190F081E02D642FDF91CF9157
:101440001F910F91FF90EF90DF90CF9019942A3069
:101450003105E9F477FF1AC06DE20E9432098C0170
:1014600044275527BA014C195D096E097F092AE006
:10147000CE010E94B109800F911FDF91CF911F9182
:101480000F91FF90EF90DF90CF9008952AE0B70181
:10149000A601CE01DF91CF911F910F91FF90EF90A8
:1014A000DF90CF900C94B1099A01AB01662757FDEC
:1014B0006095762F0C940A0A0F931F93CF93DF93B6
:1014C000EC019A01AB01662757FD6095762F0E94CB
:1014D0000A0A8C01CE010E944309800F911FDF91FF
:1014E000CF911F910F9108950F931F93CF93DF9387
:1014F000EC010E940A0A8C01CE010E944309800F70
:10150000911FDF91CF911F910F9108952115310502
:1015100041F4DC01ED91FC910190F081E02D642F0C
:1015200019940C94B1099A01462F50E060E070E0E4
:101530000C94860A0F931F93CF93DF93EC019A01CB
:10154000462F50E060E070E00E94860A8C01CE01D8
:101550000E944309800F911FDF91CF911F910F913E
:1015600008959A01AB0160E070E00C94860A0F9335
:101570001F93CF93DF93EC019A01AB0160E070E021
:101580000E94860A8C01CE010E944309800F911FA0
:10159000DF91CF911F910F9108950F931F93CF93D8
:1015A000DF93EC010E94860A8C01CE010E94430960
:1015B000800F911FDF91CF911F910F9108954F924E
:1015C0005F926F927F928F929F92AF92BF92CF92D3
:1015D000DF92EF92FF920F931F93CF93DF93EC0173
:1015E0006A017B01B22E9A01AB01C701B6010E94CC
:1015F0002A1D882319F06EE372E027C02601370107
:10160000E89477F82FEF3FEF4FE75FE7C301B201B0
:101610000E942A1D81110DC02FEF3FEF4FE75FE7BA
:10162000C301B2010E94741B18161CF462E472E03C
:101630000CC02FEF3FEF4FE75FE4C701B6010E94F8
:10164000C31C1816ACF466E472E0CE01DF91CF91B2
:101650001F910F91FF90EF90DF90CF90BF90AF90D0
:101660009F908F907F906F905F904F900C94C008E8
:101670002FEF3FEF4FE75FECC701B6010E94741BED
:1016800087FDE1CF20E030E0A901C701B6010E944B
:10169000741B87FF0AC06DE2CE010E9432098C01E3
:1016A000F7FAF094F7F8F09402C000E010E0A12CF3
:1016B00060E070E080E09FE3AB1441F020E030E0B8
:1016C00040E251E40E94781BA394F6CF9B01AC0149
:1016D000C701B6010E94101B6B017C010E94E51B33
:1016E0002B013C010E94111C9B01AC01C701B601FA
:1016F0000E940F1B6B017C012AE0B301A201CE0105
:101700000E94B109080F191FBB2039F06AE472E08A
:10171000CE010E94C008080F191F7B2C772041F1D1
:1017200020E030E040E251E4C701B6010E94C71C4E
:101730006B017C010E94E01B4B01AA2497FCA09442
:10174000BA2C2AE030E0B501A401CE010E940A0AB9
:10175000080F191FC501B4010E94131C9B01AC01A5
:10176000C701B6010E940F1B6B017C017A94D6CF92
:10177000C801DF91CF911F910F91FF90EF90DF9003
:10178000CF90BF90AF909F908F907F906F905F9021
:101790004F9008950C94DF0A0F931F93CF93DF931C
:1017A000EC010E94DF0A8C01CE010E944309800FE8
:1017B000911FDF91CF911F910F9108950C94111EED
:1017C0000C94271E0C94831E0C94561EFC018081E1
:1017D00091810C949719CF93DF93EC0188819981C3
:1017E000009711F00E949719198218821D821C829D
:1017F0001B821A82DF91CF9108950F931F93CF938D
:10180000DF93EC018B016F5F7F4F888199810E948C
:10181000261A009731F0998388831B830A8381E01D
:1018200001C080E0DF91CF911F910F910895CF9378
:10183000DF93EC0188819981892B29F08A819B8132
:101840008617970760F4CE010E94FD0B882341F0B4
:101850008C819D81892B19F4E881F981108281E0C6
:10186000DF91CF910895EF92FF920F931F93CF9343
:10187000DF93EC017B018A01BA010E94170C8111F0
:1018800004C0CE010E94EB0B07C01D830C83B7017F
:10189000888199810E94C81DCE01DF91CF911F914F
:1018A0000F91FF90EF900895FC0111821082138236
:1018B00012821582148216826115710559F0FB019E
:1018C00001900020E9F7AF0141505109461B570B29
:1018D0000C94330C0895CF93DF93EC01FB01861732
:1018E000970761F0608171816115710529F044816C
:1018F00055810E94330C02C00E94EB0BCE01DF9198
:10190000CF910895FC0111821082138212821582F8
:10191000148216820C946B0CCF93DF93EC0161154B
:10192000710561F0FB0101900020E9F7AF01415022
:101930005109461B570B0E94330C02C00E94EB0B4F
:10194000CE01DF91CF910895CF93DF931F921F9225
:10195000CDB7DEB7FC01118210821382128215828C
:101960001482168269831A82BE016F5F7F4F0E94C4
:101970008C0C0F900F90DF91CF9108950F931F93D0
:10198000CF93DF93CDB7DEB729970FB6F894DEBFBC
:101990000FBECDBF8C01862FF801118210821382F9
:1019A000128215821482168250E0BE016F5F7F4F53
:1019B00090E00E94831EBE016F5F7F4FC8010E94AE
:1019C0008C0C29960FB6F894DEBF0FBECDBFDF9109
:1019D000CF911F910F9108950F931F93CF93DF9392
:1019E000CDB7DEB762970FB6F894DEBF0FBECDBF9E
:1019F0008C01CB01F80111821082138212821582B0
:101A00001482168250E0BE016F5F7F4F0E94111E4C
:101A1000BE016F5F7F4FC8010E948C0C62960FB6AB
:101A2000F894DEBF0FBECDBFDF91CF911F910F9114
:101A300008950F931F93CF93DF93CDB7DEB76197D0
:101A40000FB6F894DEBF0FBECDBF8C01CB01F801FD
:101A5000118210821382128215821482168250E043
:101A6000BE016F5F7F4F0E94831EBE016F5F7F4F7D
:101A7000C8010E948C0C61960FB6F894DEBF0FBEB1
:101A8000CDBFDF91CF911F910F9108950F931F93B9
:101A9000CF93DF93CDB7DEB7A2970FB6F894DEBF32
:101AA0000FBECDBF8C01CB01BA01F80111821082AB
:101AB0001382128215821482168230E0AE014F5FCB
:101AC0005F4F0E94271EBE016F5F7F4FC8010E94BB
:101AD0008C0CA2960FB6F894DEBF0FBECDBFDF917F
:101AE000CF911F910F9108950F931F93CF93DF9381
:101AF000CDB7DEB7A1970FB6F894DEBF0FBECDBF4E
:101B00008C01CB01BA01F80111821082138212827A
:101B100015821482168230E0AE014F5F5F4F0E9443
:101B2000561EBE016F5F7F4FC8010E948C0CA196AC
:101B30000FB6F894DEBF0FBECDBFDF91CF911F91DE
:101B40000F910895EF92FF920F931F93CF93DF931E
:101B5000EC017B010C811D816115710511F480E0A0
:101B600016C04115510591F0040F151FB8010E94D0
:101B7000170C8823A1F3288139818C819D81B701BD
:101B8000820F931F0E94C81D1D830C8381E0DF918B
:101B9000CF911F910F91FF90EF900895FB01448129
:101BA0005581608171810C94A20D6115710559F008
:101BB000FB0101900020E9F7AF0141505109461B9C
:101BC000570B0C94A20D80E00895CF93DF931F92E2
:101BD0001F92CDB7DEB769831A8241E050E0BE01A3
:101BE0006F5F7F4F0E94A20D0F900F90DF91CF91FA
:101BF0000895EF92FF920F931F93CF93DF9300D03E
:101C00001F92CDB7DEB77C01862F4AE050E08E01EF
:101C10000F5F1F4FB80190E00E94111EF801019064
:101C20000020E9F7AF0141505109401B510BB801A9
:101C3000C7010E94A20D0F900F900F900F90DF919F
:101C4000CF911F910F91FF90EF900895EF92FF9227
:101C50000F931F93CF93DF93CDB7DEB727970FB6C0
:101C6000F894DEBF0FBECDBF7C01CB014AE050E04F
:101C70008E010F5F1F4FB8010E94111EF8010190E5
:101C80000020E9F7AF0141505109401B510BB80149
:101C9000C7010E94A20D27960FB6F894DEBF0FBEB3
:101CA000CDBFDF91CF911F910F91FF90EF900895DD
:101CB000EF92FF920F931F93CF93DF9300D000D04A
:101CC000CDB7DEB77C01CB014AE050E08E010F5F5B
:101CD0001F4FB8010E94831EF80101900020E9F710
:101CE000AF0141505109401B510BB801C7010E947F
:101CF000A20D26960FB6F894DEBF0FBECDBFDF91C2
:101D0000CF911F910F91FF90EF900895EF92FF9266
:101D10000F931F93CF93DF93CDB7DEB72C970FB6FA
:101D2000F894DEBF0FBECDBF7C01CB01BA012AE023
:101D300030E08E010F5F1F4FA8010E94271EF8019F
:101D400001900020E9F7AF0141505109401B510BB0
:101D5000B801C7010E94A20D2C960FB6F894DEBF01
:101D60000FBECDBFDF91CF911F910F91FF90EF90EC
:101D70000895EF92FF920F931F93CF93DF93CDB708
:101D8000DEB72B970FB6F894DEBF0FBECDBF7C0138
:101D9000CB01BA012AE030E08E010F5F1F4FA8018E
:101DA0000E94561EF80101900020E9F7AF01415052
:101DB0005109401B510BB801C7010E94A20D2B967F
:101DC0000FB6F894DEBF0FBECDBFDF91CF911F914C
:101DD0000F91FF90EF900895CF93DF93EC01FB01FB
:101DE00044815581608171810E94A20D811103C0DF
:101DF000CE010E94EB0BCE01DF91CF910895CF93DE
:101E0000DF93EC016115710569F0FB010190002081
:101E1000E9F7AF0141505109461B570B0E94A20D33
:101E2000811103C0CE010E94EB0BCE01DF91CF9157
:101E30000895CF93DF93EC010E94E50D811103C05B
:101E4000CE010E94EB0BCE01DF91CF910895CF938D
:101E5000DF93EC010E94F90D811103C0CE010E94B5
:101E6000EB0BCE01DF91CF910895CF93DF93EC017F
:101E70000E94260E811103C0CE010E94EB0BCE0101
:101E8000DF91CF910895CF93DF93EC010E94580E1C
:101E9000811103C0CE010E94EB0BCE01DF91CF91E7
:101EA0000895CF93DF93EC010E94860E811103C049
:101EB000CE010E94EB0BCE01DF91CF910895CF931D
:101EC000DF93EC010E94B90E811103C0CE010E9484
:101ED000EB0BCE01DF91CF910895CF93DF93DC011F
:101EE000ED91FC91EB01A881B981309711F0109729
:101EF000C9F4109759F0EB012C813D81232B31F06F
:101F00008C9190E091958195910914C0309781F062
:101F1000DC0114968D919C911597892B49F0808155
:101F200090E008C0BD01CF01DF91CF910C94BF1D9F
:101F300080E090E0DF91CF910895FC0144815581CC
:101F4000FB01248135814217530741F40E946D0F34
:101F500021E0892B09F020E0822F089580E0089588
:101F6000FC0124813581232B31F421E061157105B9
:101F7000A1F0FB0108C0FC01808191816115710510
:101F800031F421E0FC018081882339F005C00E94F2
:101F9000BF1D21E0892B09F020E0822F08950E94C7
:101FA0006D0F892F881F8827881F08950E946D0F45
:101FB00021E0181619060CF020E0822F08950E94E7
:101FC0006D0F21E0181619060CF420E0822F0895F9
:101FD0000E946D0F892F8095881F8827881F08957C
:101FE000EF92FF920F931F93CF93DF93861797077C
:101FF00031F1FC0124813581FB0144815581241795
:102000003507F9F4232BD9F0FC0100811181FB0184
:10201000C081D181F80181918F01882381F09927B6
:1020200087FD90950E94891D7C018991992787FDE4
:1020300090950E94891DE816F90661F302C081E0BF
:1020400001C080E0DF91CF911F910F91FF90EF9041
:102050000895FA01DB0114964D915C911597DC010E
:1020600014962D913C911597241B350B2E173F0785
:1020700088F08D919C91009769F0DB016D917C91C6
:102080006115710539F08E0F9F1F0E94CF1D21E051
:10209000892B09F020E0822F0895FC0144815581AD
:1020A000FB01248135814217530720F040E050E0C6
:1020B0000C94291080E00895FC0184819581DB0156
:1020C00014964D915C9115978417950798F020818F
:1020D00031812115310571F06D917C91611571058A
:1020E00049F0841B950B820F931F0E94BF1D21E0B6
:1020F000892B09F020E0822F0895DC0114962D91A0
:102100003C9115976217730728F4ED91FC91E60F47
:10211000F71F40830895FC01848195816817790732
:1021200020F480819181009729F41092390389E38A
:1021300093E00895860F971F0895FC01248135814F
:102140006217730748F480819181009729F0FC01A0
:10215000E60FF71F8081089580E008950C949D108C
:102160000F931F93CF93DF93EB0141155105E9F0D6
:102170002097D9F0FC016481758126173707A0F4F8
:10218000621B730B8A01015011096017710708F473
:102190008B01FC0160817181620F731FA801CE0168
:1021A0000E94DD1DC00FD11F1882DF91CF911F91BA
:1021B0000F910895CF93DF93FC0184819581481797
:1021C000590778F4C081D181772767FD7095CE01DA
:1021D000840F951F0E94B41D009719F08C1B9D0B56
:1021E00002C08FEF9FEFDF91CF91089540E050E064
:1021F0000C94DA10CF93DF93FC018481958148170A
:10220000590778F4C081D181FB0160817181CE01D1
:10221000840F951F0E94F71D009719F08C1B9D0BD2
:1022200002C08FEF9FEFDF91CF91089540E050E023
:102230000C94FA10DF92EF92FF920F931F93CF93BB
:10224000DF93EC018C819D814817590718F08FEFBF
:102250009FEF1BC08A010F5F1F4FE881F981E00FDC
:10226000F11FD0801082E880F980772767FD709594
:10227000C7010E94EC1DF701E00FF11FD08200970B
:1022800031F328813981821B930BDF91CF911F910C
:102290000F91FF90EF90DF900895FC0144815581EC
:1022A000415051090C941A11AF92BF92CF92DF9214
:1022B000EF92FF920F931F93CF93DF937B01EA017D
:1022C000FB01448155814115510569F1FC012481CF
:1022D00035812115310539F12417350720F1C21751
:1022E000D30710F0E9012197FC0100811181C80199
:1022F000AA24AA94BB24BA946801CC0EDD1EC81689
:10230000D906A0F0F701608171810E94F71D009746
:1023100069F09C01201B310BC217D30708F495010B
:1023200001965901ECCF8FEF9FEF01C0C501DF91FE
:10233000CF911F910F91FF90EF90DF90CF90BF90C2
:10234000AF900895FC0144815581FB0124813581C2
:10235000421B530B0C945411BF92CF92DF92EF9219
:10236000FF920F931F93CF93DF936C017B01EA01E0
:1023700089012417350720F48D2FE901042F182F28
:102380006BE472E0C6010E94540CD70114968D9143
:102390009C9115978C179D07C8F08017910708F43A
:1023A0008C01D701ED91FC911197E00FF11FB080E6
:1023B00010826D917C916C0F7D1FC6010E948C0C68
:1023C000D701ED91FC91E00FF11FB082C601DF91C2
:1023D000CF911F910F91FF90EF90DF90CF90BF9022
:1023E0000895CF93DF93EC01FB01248135810E9496
:1023F000AC11CE01DF91CF910895DC01ED91FC91FC
:10240000309729F40895861301C040833196808166
:102410008111F9CF08952F923F924F925F926F9260
:102420007F928F929F92AF92BF92CF92DF92EF9264
:10243000FF920F931F93CF93DF93EC015B017A011F
:102440004C805D804114510409F4C5C0FB016480D7
:1024500075806114710409F4BEC0FA01C480D5808E
:10246000C618D70808811981C114D104C1F4F50137
:1024700060817181C8010E94F71DEC01009709F489
:10248000AAC0F7016081718144815581CE010E940B
:10249000991DF701048115810C0F1D1FE8CFD7FC92
:1024A00005C0FB0120803180420143C04801F50195
:1024B00060817181C8010E94F71D2C01009719F1FC
:1024C0003201601A710AA301B801C4010E94991D6A
:1024D000680C791CF7016081718144815581C301C9
:1024E0000E94991DF70184809580860C971CF50148
:1024F00004811581040D151D8C819D818C0D9D1D00
:102500009D838C83D4CFB801C401DF91CF911F91FB
:102510000F91FF90EF90DF90CF90BF90AF909F9082
:102520008F907F906F905F904F903F902F900C9482
:10253000C81DB101C8010E94F71D009731F08C0140
:10254000060D171D8C0C9D1CF4CF8414950409F402
:1025500042C08A819B818815990530F4B401CE016F
:102560000E94FD0B8823B9F14C815D8141505109D6
:1025700057FD31C0B501CE010E9454118C0197FD69
:102580002AC088819981F50124813581200F311F6E
:10259000820F931F4C815D81421B530BBC018C0D3C
:1025A0009D1D0E94A21D8C819D818C0D9D1D9D8372
:1025B0008C83E881F981E80FF91F10828881998165
:1025C000F7016081718144815581800F911F0E94C4
:1025D000991DA801CBCFDF91CF911F910F91FF9053
:1025E000EF90DF90CF90BF90AF909F908F907F90B3
:1025F0006F905F904F903F902F900895CF93DF930F
:10260000FC01C081D181209751F08881882339F065
:10261000992787FD90950E94891D8993F6CFDF91B8
:10262000CF910895CF93DF93FC01C081D181209792
:1026300051F08881882339F0992787FD90950E9471
:10264000911D8993F6CFDF91CF910895AF92BF92FC
:10265000CF92DF92EF92FF920F931F93CF93DF936E
:102660007C01DC01CD90DC901197C114D10409F4F8
:1026700041C01496CD91DC9115972097D9F1560160
:102680008501BFEFAB1ABB0AF8018081992787FD4E
:1026900090950E94811D892B99F72197CC0DDD1D06
:1026A0008881992787FD90950E94811D892B91F43F
:1026B000AE014F5F5F4F401B510BD70115965C93E6
:1026C0004E931497C016D10650F4B801C6010E946B
:1026D000991D05C0C017D10758F32197E1CFD70145
:1026E000ED91FC91119714968D919C911597E80F9F
:1026F000F91F1082DF91CF911F910F91FF90EF9002
:10270000DF90CF90BF90AF900895FC0180819181C0
:10271000009711F00C945A1D60E070E0CB01089511
:10272000FC0124853585F901E05CFF4F80819181B2
:10273000329620813181821B930B8F7399270895E4
:10274000FC0184859585FC01E05CFF4F408151814F
:102750003296208131814217530741F00190F08178
:10276000E02DE80FF91F808190E008958FEF9FEF33
:102770000895FC0184859585FC01E05CFF4F408154
:1027800051813296208131814217530779F0A0811F
:10279000B181A80FB91F8C91208131812F5F3F4FEC
:1027A0002F7333273183208390E008958FEF9FEFBD
:1027B0000895FC0181A1882329F0A489B5898C9111
:1027C00086FFFBCF11A20895CF93DF93FC012685EE
:1027D0003785D901A05CBF4F8D919C9111970196CF
:1027E0008F739927E901CE5BDF4F488159818417A8
:1027F0009507D9F30D90BC91A02DA20FB31F6C9338
:10280000A685B785A05CBF4F11969C938E93A68931
:10281000B7892C9181E090E0078C02C0880F991F46
:102820000A94E2F7282B2C9381E081A30488F58990
:10283000E02D80818064808381E090E0DF91CF9102
:102840000895FB01E05CFF4F208131812F5F3F4FF6
:102850002F733327DB01AE5BBF4F4D915C91241783
:10286000350739F0A081B181A60FB71F8C93318352
:102870002083089508951F920F920FB60F9211248E
:102880000BB60F922F933F934F935F936F937F936A
:102890008F939F93AF93BF93EF93FF938091C0006B
:1028A00082FD07C08091C6006EE975E00E94211488
:1028B00002C08091C600FF91EF91BF91AF919F91AF
:1028C0008F917F916F915F914F913F912F910F90D9
:1028D0000BBE0F900FBE0F901F90189508951F927A
:1028E0000F920FB60F9211240BB60F922F933F93B6
:1028F0004F935F936F937F938F939F93AF93BF9308
:10290000EF93FF938091C80082FD07C08091CE00B5
:1029100066E175E00E94211402C08091CE00FF9113
:10292000EF91BF91AF919F918F917F916F915F9147
:102930004F913F912F910F900BBE0F900FBE0F90B4
:102940001F90189508951F920F920FB60F921124A1
:102950000BB60F922F933F934F935F936F937F9399
:102960008F939F93AF93BF93EF93FF938091D0008A
:1029700082FD07C08091D6006EE874E00E942114A9
:1029800002C08091D600FF91EF91BF91AF919F91CE
:102990008F917F916F915F914F913F912F910F9008
:1029A0000BBE0F900FBE0F901F90189508951F92A9
:1029B0000F920FB60F9211240BB60F922F933F93E5
:1029C0004F935F936F937F938F939F93AF93BF9337
:1029D000EF93FF938091300182FD07C08091360113
:1029E00066E074E00E94211402C080913601FF91DC
:1029F000EF91BF91AF919F918F917F916F915F9177
:102A00004F913F912F910F900BBE0F900FBE0F90E3
:102A10001F90189580EA93E00E949013892B11F083
:102A20000E943A148EE793E00E949013892B11F0D4
:102A30000E946E148CE593E00E949013892B11F094
:102A40000E94A2148AE393E00E949013892B11F054
:102A50000C94D61408951F920F920FB60F92112462
:102A60000BB60F922F933F938F939F93EF93FF9308
:102A700020919A0530919B0580919C0590919D0530
:102A80002817390731F48091C1008F7D8093C100F0
:102A900014C0E0919C05F0919D05E65AFA4F208103
:102AA00080919C0590919D0501968F739927909335
:102AB0009D0580939C052093C600FF91EF919F9107
:102AC0008F913F912F910F900BBE0F900FBE0F90E3
:102AD0001F9018951F920F920FB60F9211240BB6EC
:102AE0000F922F933F938F939F93EF93FF93209198
:102AF0001205309113058091140590911505281742
:102B0000390731F48091C9008F7D8093C90014C0CA
:102B1000E0911405F0911505EE52FB4F2081809154
:102B200014059091150501968F73992790931505BB
:102B3000809314052093CE00FF91EF919F918F9188
:102B40003F912F910F900BBE0F900FBE0F901F90D3
:102B500018951F920F920FB60F9211240BB60F9279
:102B60002F933F938F939F93EF93FF9320918A042A
:102B700030918B0480918C0490918D042817390733
:102B800031F48091D1008F7D8093D10014C0E09109
:102B90008C04F0918D04E65BFB4F208180918C04C6
:102BA00090918D0401968F73992790938D04809353
:102BB0008C042093D600FF91EF919F918F913F91CC
:102BC0002F910F900BBE0F900FBE0F901F90189576
:102BD0001F920F920FB60F9211240BB60F922F93E4
:102BE0003F938F939F93EF93FF9320910204309133
:102BF000030480910404909105042817390731F4E7
:102C0000809131018F7D8093310114C0E0910404E3
:102C1000F0910504EE53FC4F2081809104049091C3
:102C2000050401968F7399279093050480930404FB
:102C300020933601FF91EF919F918F913F912F91BA
:102C40000F900BBE0F900FBE0F901F9018958F9294
:102C50009F92AF92BF92CF92DF92EF92FF920F932B
:102C60001F93CF93DF93CDB7DEB7FC01138212829F
:102C700088EE93E0A0E0B0E084839583A683B783D9
:102C800088E592E0918380837587648757874687BC
:102C9000318B208B138B028BF58AE48AD78AC68A04
:102CA000B18EA08E938E828E8889848F8989858F3C
:102CB0008A89868F8B89878F8C8980A3DF91CF91BA
:102CC0001F910F91FF90EF90DF90CF90BF90AF904A
:102CD0009F908F900895CF92DF92EF92FF92CF93C3
:102CE000DF93EC016A017B01411581EE5807610514
:102CF0007105F9F0EC89FD8981E090E008A002C03F
:102D0000880F991F0A94E2F7808360E079E08DE3F1
:102D100090E0A70196010E942E1D21503109410922
:102D200051095695479537952795211580E1380724
:102D300098F0EC89FD89108260E874E88EE190E0FB
:102D4000A70196010E942E1D215031094109510908
:102D50005695479537952795E889F9893083EA890B
:102D6000FB89208319A2EE89FF89408181E090E0F0
:102D70009C010C8C02C0220F331F0A94E2F7422BF5
:102D80004083EE89FF8940819C010D8C02C0220F97
:102D9000331F0A94E2F7422B4083EE89FF8940817A
:102DA0009C010E8C02C0220F331F0A94E2F7422BC3
:102DB0004083EE89FF8920810F8C02C0880F991F04
:102DC0000A94E2F7809582238083DF91CF91FF9070
:102DD000EF90DF90CF900895BF92CF92DF92EF9265
:102DE000FF92CF93DF93EC016A017B01B22E411574
:102DF00081EE580761057105F9F0EC89FD8981E0E4
:102E000090E008A002C0880F991F0A94E2F780831F
:102E100060E079E08DE390E0A70196010E942E1D0D
:102E20002150310941095109569547953795279504
:102E3000211580E1380798F0EC89FD89108260E85F
:102E400074E88EE190E0A70196010E942E1D2150AA
:102E50003109410951095695479537952795E889D4
:102E6000F9893083EA89FB892083E88DF98DB08266
:102E7000EE89FF89408181E090E09C010C8C02C0CA
:102E8000220F331F0A94E2F7422B4083EE89FF8919
:102E900040819C010D8C02C0220F331F0A94E2F77F
:102EA000422B4083EE89FF8940819C010E8C02C039
:102EB000220F331F0A94E2F7422B4083EE89FF89E9
:102EC00020810F8C02C0880F991F0A94E2F7809529
:102ED00082238083DF91CF91FF90EF90DF90CF909E
:102EE000BF900895CF93DF93FC0186859785DC0121
:102EF000A05CBF4FEC01CE5BDF4F4D915C91119711
:102F00002881398142175307C1F7A689B7894C91A7
:102F100081E090E09C01048C02C0220F331F0A94D0
:102F2000E2F7209524232C93A689B7894C919C0124
:102F3000058C02C0220F331F0A94E2F72095242348
:102F40002C93A689B7894C919C01068C02C0220F54
:102F5000331F0A94E2F7209524232C93A689B7897E
:102F60002C91078C02C0880F991F0A94E2F7809574
:102F700082238C9384859585FC01EE5BFF4F208135
:102F80003181329731832083DF91CF91089581E0A1
:102F90000895CF931092A3031092A20388EE93E0BA
:102FA000A0E0B0E08093A4039093A503A093A603B0
:102FB000B093A70328E532E03093A1032093A00348
:102FC0004EE955E05093AD034093AC034AE555E01C
:102FD0005093AF034093AE0345EC50E05093B103E0
:102FE0004093B00344EC50E05093B3034093B203DA
:102FF00040EC50E05093B5034093B40341EC50E0F3
:103000005093B7034093B60342EC50E05093B9039A
:103010004093B80346EC50E05093BB034093BA038F
:10302000C4E0C093BC03F3E0F093BD03E7E0E0939A
:10303000BE0375E07093BF0361E06093C00310921C
:103040008103109280038093820390938303A09363
:103050008403B093850330937F0320937E0346E17E
:1030600055E050938B0340938A0342ED54E0509314
:103070008D0340938C034DEC50E050938F034093AD
:103080008E034CEC50E0509391034093900348EC36
:1030900050E0509393034093920349EC50E05093D7
:1030A0009503409394034AEC50E050939703409368
:1030B00096034EEC50E05093990340939803C093CD
:1030C0009A03F0939B03E0939C0370939D0360939A
:1030D0009E0310925F0310925E03809360039093AF
:1030E0006103A0936203B093630330935D03209365
:1030F0005C034EE854E050936903409368034AE44C
:1031000054E050936B0340936A0345ED50E05093B5
:103110006D0340936C0344ED50E050936F03409374
:103120006E0340ED50E0509371034093700341ED06
:1031300050E0509373034093720342ED50E050937C
:1031400075034093740346ED50E05093770340932A
:103150007603C0937803F0937903E0937A03709336
:103160007B0360937C0310923D0310923C03809399
:103170003E0390933F03A0934003B09341033093E9
:103180003B0320933A0386E094E0909347038093B7
:10319000460382EC93E0909349038093480385E3D0
:1031A00091E090934B0380934A0384E391E09093E2
:1031B0004D0380934C0380E391E090934F03809301
:1031C0004E0381E391E0909351038093500382E397
:1031D00091E0909353038093520386E391E09093A0
:1031E000550380935403C0935603F0935703E09321
:1031F00058037093590360935A03CF910895CF9366
:10320000DF938230910510F482E090E0E091E405D4
:10321000F091E50520E030E0A0E0B0E0309739F132
:103220004081518148175907B8F04817590771F480
:1032300082819381109729F013969C938E93129715
:103240002CC09093E5058093E40527C02115310536
:1032500031F04217530718F0A901DB0101C0EF015B
:103260009A01BD01DF010280F381E02DD7CF211546
:103270003105F9F0281B390B2430310580F48A819F
:103280009B816115710521F0FB019383828304C04A
:103290009093E5058093E405FE01329644C0FE015B
:1032A000E20FF31F819391932250310939832883D0
:1032B0003AC02091E2053091E305232B41F420919F
:1032C0000802309109023093E3052093E205209132
:1032D0000602309107022115310541F42DB73EB7A2
:1032E00040910A0250910B02241B350BE091E2053C
:1032F000F091E305E217F307A0F42E1B3F0B28170C
:10330000390778F0AC014E5F5F4F2417350748F05E
:103310004E0F5F1F5093E3054093E2058193919315
:1033200002C0E0E0F0E0CF01DF91CF910895CF93AC
:10333000DF93009709F487C0FC0132971382128251
:10334000C091E405D091E505209781F42081318179
:10335000280F391F8091E2059091E30582179307AA
:1033600079F5F093E305E093E2056DC0DE0120E01E
:1033700030E0AE17BF0750F412964D915C91139751
:103380009D014115510509F1DA01F3CFB383A28301
:1033900040815181840F951F8A179B0771F48D918D
:1033A0009C911197840F951F0296918380831296AA
:1033B0008D919C911397938382832115310529F474
:1033C000F093E505E093E4053EC0D9011396FC9324
:1033D000EE9312974D915D91A40FB51FEA17FB076D
:1033E00079F480819181840F951F0296D9011196FD
:1033F0009C938E938281938113969C938E931297C4
:10340000E0E0F0E08A819B81009719F0FE01EC0179
:10341000F9CFCE01029628813981820F931F209126
:10342000E2053091E3052817390769F4309729F44C
:103430001092E5051092E40502C013821282D09327
:10344000E305C093E205DF91CF9108956F927F92DB
:103450008F929F92AF92BF92CF92DF92EF92FF92A4
:103460000F931F93CF93DF93EC01CB01209781F44F
:10347000DF91CF911F910F91FF90EF90DF90CF9050
:10348000BF90AF909F908F907F906F900C94FF189B
:10349000FE01E60FF71F9E0122503109E217F307E4
:1034A00008F4ACC0D9010D911C91119706171707AC
:1034B000B8F00530110508F49FC0A8014450510927
:1034C0004617570708F498C002501109061B170B3E
:1034D000019311936D937C93CF010E9497198CC037
:1034E0005B01A01AB10A4E01800E911EA091E40565
:1034F000B091E505612C712C60E070E0109709F443
:1035000049C0A815B905C9F5ED90FC901197670160
:1035100042E0C40ED11CCA14DB0478F147018A18BA
:103520009B08640142E0C40ED11C1296BC90129715
:103530001396AC91B5E0CB16D10440F0B282A383D0
:1035400091828082D9018D939C9309C00E5F1F4F99
:103550000E0D1F1DF90111830083EB2DFA2F61154C
:10356000710531F0DB011396FC93EE93129744C082
:10357000F093E505E093E4053FC06D917C911197D0
:103580006616770608F43B01BD0112960D90BC91BA
:10359000A02DB4CF6091E2057091E305681579051F
:1035A000E9F468167906D0F44091060250910702BA
:1035B0004115510541F44DB75EB760910A02709113
:1035C0000B02461B570BE417F507C0F4F093E30515
:1035D000E093E205F901918380830EC00E94FF18F9
:1035E0007C01009759F0A801BE010E94991DCE01EF
:1035F0000E949719C70104C0CE0102C080E090E08C
:10360000DF91CF911F910F91FF90EF90DF90CF90BE
:10361000BF90AF909F908F907F906F90089550587B
:10362000BB27AA270ED075C166D130F06BD120F030
:1036300031F49F3F11F41EF45BC10EF4E095E7FBFB
:1036400051C1E92F77D180F3BA1762077307840756
:10365000950718F071F49EF58FC10EF4E0950B2ECE
:10366000BA2FA02D0B01B90190010C01CA01A001D4
:103670001124FF27591B99F0593F50F4503E68F12F
:103680001A16F040A22F232F342F4427585FF3CF70
:10369000469537952795A795F0405395C9F77EF441
:1036A0001F16BA0B620B730B840BBAF09150A1F08A
:1036B000FF0FBB1F661F771F881FC2F70EC0BA0F10
:1036C000621F731F841F48F4879577956795B79598
:1036D000F7959E3F08F0B3CF9395880F08F0992790
:1036E000EE0F979587950895D9D008F481E0089555
:1036F0000CD00FC107D140F0FED030F021F45F3F75
:1037000019F0F0C0511139C1F3C014D198F39923C5
:10371000C9F35523B1F3951B550BBB27AA27621795
:103720007307840738F09F5F5F4F220F331F441FDA
:10373000AA1FA9F333D00E2E3AF0E0E830D0915012
:103740005040E695001CCAF729D0FE2F27D0660FFF
:10375000771F881FBB1F261737074807AB07B0E83E
:1037600009F0BB0B802DBF01FF2793585F4F2AF054
:103770009E3F510568F0B6C000C15F3FECF3983E34
:10378000DCF3869577956795B795F7959F5FC9F7B1
:10379000880F911D9695879597F90895E1E0660F3A
:1037A000771F881FBB1F621773078407BA0720F0B3
:1037B000621B730B840BBA0BEE1F88F7E09508951C
:1037C00004D06894B111D9C00895BCD088F09F5737
:1037D00090F0B92F9927B751A0F0D1F0660F771F5D
:1037E000881F991F1AF0BA95C9F712C0B13081F03D
:1037F000C3D0B1E00895C0C0672F782F8827B85F85
:1038000039F0B93FCCF3869577956795B395D9F79D
:103810003EF490958095709561957F4F8F4F9F4FA7
:103820000895E89409C097FB3EF4909580957095B3
:1038300061957F4F8F4F9F4F9923A9F0F92F96E9FC
:10384000BB279395F695879577956795B795F11171
:10385000F8CFFAF4BB0F11F460FF1BC06F5F7F4F0E
:103860008F4F9F4F16C0882311F096E911C0772320
:1038700021F09EE8872F762F05C0662371F096E829
:10388000862F70E060E02AF09A95660F771F881FF8
:10389000DAF7880F9695879597F90895990F00089C
:1038A000550FAA0BE0E8FEEF16161706E807F90712
:1038B000C0F012161306E407F50798F0621B730BAD
:1038C000840B950B39F40A2661F0232B242B252B2E
:1038D00021F408950A2609F4A140A6958FEF811DD1
:1038E000811D089597F99F6780E870E060E0089572
:1038F0009FEF80EC089500240A9416161706180608
:103900000906089500240A941216130614060506E3
:103910000895092E0394000C11F4882352F0BB0F74
:1039200040F4BF2B11F460FF04C06F5F7F4F8F4FD7
:103930009F4F089557FD9058440F551F59F05F3F12
:1039400071F04795880F97FB991F61F09F3F79F0C1
:1039500087950895121613061406551FF2CF469543
:10396000F1DF08C0161617061806991FF1CF8695C5
:103970007105610508940895E894BB2766277727A9
:10398000CB0197F908958ADF08F48FEF08950BD0E3
:10399000C0CFB1DF28F0B6DF18F0952309F0A2CF31
:1039A000A7CF1124EACFC6DFA0F3959FD1F3950FDF
:1039B00050E0551F629FF001729FBB27F00DB11DB3
:1039C000639FAA27F00DB11DAA1F649F6627B00D43
:1039D000A11D661F829F2227B00DA11D621F739F2C
:1039E000B00DA11D621F839FA00D611D221F749F3A
:1039F0003327A00D611D231F849F600D211D822F81
:103A0000762F6A2F11249F5750408AF0E1F08823C7
:103A10004AF0EE0FFF1FBB1F661F771F881F9150D4
:103A20005040A9F79E3F510570F05CCFA6CF5F3F95
:103A3000ECF3983EDCF3869577956795B795F79507
:103A4000E7959F5FC1F7FE2B880F911D969587958F
:103A500097F9089523DF880B990B0895A1E21A2E98
:103A6000AA1BBB1BFD010DC0AA1FBB1FEE1FFF1F22
:103A7000A217B307E407F50720F0A21BB30BE40B72
:103A8000F50B661F771F881F991F1A9469F76095B9
:103A90007095809590959B01AC01BD01CF01089573
:103AA000EE0FFF1F0590F491E02D19940790F69109
:103AB000E02D19941F93FC0199278827BC01E894F5
:103AC00011911032E9F3193010F01E30C8F31B3297
:103AD00051F01D3249F4689406C00E94411E610FE6
:103AE000711D811D911D119110531A30B0F33EF4D8
:103AF00090958095709561957F4F8F4F9F4F1F9147
:103B00000895911125C1803219F089508550D0F760
:103B100008959111089581548A5108F4805E855A60
:103B200008959111089581568A5108F4805285585C
:103B30000895FB01DC0102C001900D9241505040FC
:103B4000D8F708956817790768F4FB01DC01E40FE2
:103B5000F51FA40FB51F02C002900E9241505040B5
:103B6000D8F708950C94991DFC018191861721F0D6
:103B70008823D9F7992708953197CF010895FB013C
:103B8000DC018D91019080190110D9F3990B0895F2
:103B9000FB01DC0101900D920020E1F70895FB018B
:103BA000DC014150504030F08D910190801919F4A2
:103BB0000020B9F7881B990B0895FB01DC014150E7
:103BC000504048F001900D920020C9F701C01D92AD
:103BD00041505040E0F70895FC0181E090E00190F1
:103BE000061609F4CF010020D1F701970895FB01D3
:103BF00051915523A9F0BF01DC014D9145174111A9
:103C0000E1F759F4CD010190002049F04D914015A4
:103C10004111C9F3FB014111EFCF81E090E0019721
:103C200008954532510520F4423010F00C941C1ECA
:103C3000FB011082CB010895BB274A3031F4992350
:103C400022F4BDE2909581959F4F0C948F1E2532F2
:103C5000310520F4223010F00C94321EFA0110824B
:103C6000CA010895BB272A3051F4992342F4BDE2DA
:103C700090958095709561957F4F8F4F9F4F0C94D5
:103C8000621E592F482F372F262F660F771F881F48
:103C9000991F660F771F881F991F620F731F841F5C
:103CA000951F660F771F881F991F089525323105CC
:103CB00020F4223010F00C94611EFA011082CA0127
:103CC0000895BB27FA01A62F62177105810591059A
:103CD000330B30FB66F0AA27660F771F881F991FEA
:103CE000AA1FA21710F0A21B63953850A9F7A05D78
:103CF000AA3308F0A95DA19336F7B111B1931082F0
:103D0000CA010C94AB1E4532510520F4423010F02C
:103D10000C948E1EFB011082CB010895BB27FB0182
:103D20005527AA27880F991FAA1FA41710F0A41BB4
:103D300083955051B9F7A05DAA3308F0A95DA1930E
:103D4000009779F7B111B1931192CB010C94AB1E8E
:103D5000992788270895DC01FC01672F719177234B
:103D6000E1F7329704C07C916D9370836291AE1736
:0A3D7000BF07C8F30895F894FFCFD1
:103D7A005D00140078000000E605800020583D0030
:103D8A0020593D00205A3D0020463D0043000000D6
:103D9A0000008A0898088A088A088A088A0800009F
:103DAA000000B8038B03310339034C035B036E61D4
:103DBA006E00696E66006F7666002E0000000000D5
:103DCA008A08980800000000E41398089013B913B1
:043DDA00A013D91346
:00000001FF
