:100000000C94BE000C94EF000C94EF000C94EF00E5
:100010000C94EF000C94EF000C94EF000C94EF00A4
:100020000C94EF000C94EF000C94EF000C94EF0094
:100030000C94EF000C94EF000C94EF000C94EF0084
:100040000C94EF000C94EF000C94EF000C94EF0074
:100050000C94EF000C94EF000C94EF000C94260726
:100060000C94EF000C94E2130C94D2140C94EF0057
:100070000C94EF000C94EF000C94EF000C94EF0044
:100080000C94EF000C94EF000C94EF000C94EF0034
:100090000C9416140C9411150C94EF000C94EF00B2
:1000A0000C94EF000C94EF000C94EF000C94EF0014
:1000B0000C94EF000C94EF000C94EF000C94EF0004
:1000C0000C94EF000C94EF000C94EF000C944A1485
:1000D0000C9450150C94EF000C947E140C948F1516
:1000E0000C94EF00080256028A029902CD02E00247
:1000F000E802EF0200030C9499020C9400030C94A4
:1001000037130C948A020C9470170C94CD020C9443
:10011000B1140C94CC1A0C9447130C94E0020C9478
:1001200060130C9456020C94EF020C9408020C9489
:100130008B130C943F080C9480130C94E8024E41EE
:100140004E494E495459494E46CDCCCC3D0AD72351
:100150003C17B7D13877CC2B329595E6241FB14F99
:100160000A000020410000C84200401C4620BCBEDE
:100170004CCA1B0E5AAEC59D7400701711241FBEC9
:10018000CFEFD1E2DEBFCDBF00E00CBF12E0A0E0B8
:10019000B2E0E8E9F1E400E00BBF02C007900D9285
:1001A000A236B107D9F726E0A2E6B2E001C01D925F
:1001B000A433B207E1F711E0CCE7D1E000E006C0DC
:1001C00022970109FE010BBF0E94841DCA37D10787
:1001D00080E00807A9F70E9432080C94CA200C940A
:1001E000000040E052EC61E070E08CEE93E00E9491
:1001F000121640E052EC61E070E08AEC93E00C945F
:100200001216CF93DF938AEC93E00E943713892B69
:1002100009F472C08AEC93E00E943713892B09F429
:100220004DC08AEC93E00E946013682F82E792E051
:100230000E94F306882371F380917A0290917B02E9
:10024000A0917C02B0917D02809362029093630240
:10025000A0936402B0936502809172029091730240
:10026000A0917402B0917502809366029093670228
:10027000A0936802B0936902809176029091770210
:10028000A0917802B091790280936A0290936B02F8
:10029000A0936C02B0936D026091A802772767FD6E
:1002A0007095872F972F0E94D11B60936E027093D9
:1002B0006F028093700290937102ACCFC2E6D2E0DD
:1002C000499159916991799126E030E08CEE93E063
:1002D0000E94710B66E072E08CEE93E00E94D708FA
:1002E00082E0C237D80761F767E072E08CEE93E0F6
:1002F000DF91CF910C942209DF91CF910895FC01F9
:100300007183608342830895FC01A081B1818C9147
:10031000882369F120E0822F90E0A081B181A80FAD
:10032000B91F3C9131110BC0DB01A80FB91F1C9202
:1003300020813181280F391F318320830EC0A28193
:100340002F5F3A130CC0DB01A80FB91F1C928081EC
:100350009181820F911D9183808381E0089584179C
:100360009507CCF6DB01A80FB91F3C93D4CF80E0F2
:1003700008952F923F924F925F926F927F928F9249
:100380009F92AF92BF92CF92DF92EF92FF920F9324
:100390001F93CF93DF93CDB7DEB7A1970FB6F89435
:1003A000DEBF0FBECDBF8C018F569F4F9E8B8D8BB6
:1003B0008CE28F8BA12CB12CC80188579F4F998F4D
:1003C000888FF801E957FF4FFB8FEA8F24E6222E32
:1003D000312C02979D8F8C8F3297FF8FEE8F059671
:1003E00099A388A344E150E0BE016F5F7F4FCE0127
:1003F00045960E948401882309F441C1F501319793
:10040000E930F10508F037C1EE58FF4F0C947E1D1E
:10041000CE0101960E949C1D2B013C010E949E1B57
:100420004B01882777FD8095982F0E94D11B6B0187
:100430007C019B01AC01C301B2010E94CD1A0E9454
:10044000A31BE88DF98D7183608320E030E048ECD8
:1004500052E4C701B6010E94131C0E94A31BEA8D3F
:10046000FB8D6083C401B1010E94481D7B01882778
:1004700077FD8095982F0E94D11B20E030E048EC5A
:1004800052E40E94131C0E94A31BEC8DFD8D60831F
:10049000C701B1010E94481DEE8DFF8D60830E944F
:1004A0007007E8A1F9A171836083E5C0CE010196D0
:1004B0000E949C1D6B017C0120E030E048EC52E47E
:1004C0000E94131C2B013C0120E030E048EC52E478
:1004D000C701B6010E94361B0E949E1B882777FD2C
:1004E0008095982F0E94D11B6B017C0120E030E0A9
:1004F00040E752E4C301B2010E94361B9B01AC01EC
:10050000C701B6010E94CE1AF8016083718382830D
:100510009383B1C08981833509F0ADC0F801808132
:100520009181A281B381B05880839183A283B383E8
:10053000A2C0CE0101960E949C1D6B017C0120E0AF
:1005400030E048EC52E40E94131C2B013C0120E0F7
:1005500030E048EC52E4C701B6010E94361B0E940D
:100560009E1B882777FD8095982F0E94D11B6B01D9
:100570007C0120E030E040E752E4C301B2010E9478
:10058000361B9B01AC01C701B6010E94CE1AF801CF
:1005900064837583868397836EC08981873551F420
:1005A000F80184819581A681B781B05884839583B1
:1005B000A683B7830E947007F801718B608B5BC0C4
:1005C000CE0101960E94A01DF80191A380A353C003
:1005D000CE0101960E94A01DF80186AB4CC0CE0151
:1005E00001960E94A01DBC01882777FD8095982F59
:1005F0000E94D11BF80164A775A786A797A73BC0E7
:10060000CE0101960E949C1DF8012085318542850E
:1006100053850E94CD1A6B017C010E947007F8017E
:1006200042885388662457FC6094762C64197509B7
:10063000860997090E94CF1B20E030E04AE754E486
:100640000E94361B9B01AC01C701B6010E94361BFC
:10065000F8016487758786879787CE0101960E9487
:100660009C1DF80160877187828793870E947007BD
:10067000F801738B628BFFEFAF1ABF0AB3CEA1965E
:100680000FB6F894DEBF0FBECDBFDF91CF911F91A3
:100690000F91FF90EF90DF90CF90BF90AF909F9021
:1006A0008F907F906F905F904F903F902F90089524
:1006B000CF92DF92EF92FF920F931F93CF93DF932E
:1006C000CDB7DEB767970FB6F894DEBF0FBECDBFCC
:1006D0007C018F569F4F9E8B8D8B8CE28F8B00E021
:1006E00010E067018FE8C80ED11C44E150E0BE0164
:1006F0006F5F7F4FCE0145960E948401882309F4E5
:1007000050C00E301105B9F1A4F40130110531F1DA
:100710000230110509F042C0CE0101960E94A01DD1
:10072000F70195A384A30E947007F70177A366A33E
:1007300035C00F30110549F10031110579F5CE01B1
:1007400001960E949C1DF70160AB71AB82AB93AB2D
:100750000E947007F70175AB64AB20C089818134BA
:1007600021F4F6011183008319C08D34B9F4F60128
:100770001182108213C0CE0101960E949C1DF701C8
:1007800060A771A782A793A709C0CE0101960E9416
:100790009C1DF70164A775A786A797A70F5F1F4F3A
:1007A000A4CF67960FB6F894DEBF0FBECDBFDF9122
:1007B000CF911F910F91FF90EF90DF90CF90089510
:1007C000DF92EF92FF920F931F93CF93DF93CDB7FA
:1007D000DEB767970FB6F894DEBF0FBECDBF7C01C2
:1007E0008F569F4F9E8B8D8B8CE28F8B44E150E018
:1007F000BE016F5F7F4FCE0145960E94840144E1A8
:1008000050E0BE016F5F7F4FCE0145960E9484018C
:1008100044E150E0BE016F5F7F4FCE0145960E94DC
:100820008401CE0101960E94A01D8C0144E150E09C
:10083000BE016F5F7F4FCE0145960E948401CE01BD
:1008400001960E94A01DF70187AB01501109000F0E
:10085000000FC701E6E00E02800D911D11248C01EE
:10086000085C1F4F34E0D32E44E150E0BE016F5FBF
:100870007F4FCE0145960E948401CE0101960E94D1
:10088000A01DF801808344E150E0BE016F5F7F4FFF
:10089000CE0145960E948401CE0101960E94A01DC2
:1008A000F8019283818344E150E0BE016F5F7F4F86
:1008B000CE0145960E948401CE0101960E94A01DA2
:1008C000F8019483838344E150E0BE016F5F7F4F62
:1008D000CE0145960E948401CE0101960E94A01D82
:1008E000F8018583DA940A5F1F4FD110BDCF0E94B3
:1008F0007007F701E058FF4F7183608367960FB66A
:10090000F894DEBF0FBECDBFDF91CF911F910F9145
:10091000FF90EF90DF9008952F923F924F925F9259
:100920006F927F928F929F92AF92BF92CF92DF92FF
:10093000EF92FF920F931F93CF93DF93CDB7DEB764
:10094000A9970FB6F894DEBF0FBECDBF8C018F56AE
:100950009F4F9E8B8D8B8CE28F8BA12CB12C18011D
:100960008AE8280E311CF801EC57FF4FF98FE88F09
:10097000C8018D579F4F9B8F8A8F3297FD8FEC8FC9
:100980000A969F8F8E8F3696F9A3E8A306979BA3AE
:100990008AA33297FDA3ECA302979FA38EA335965B
:1009A000F9A7E8A744E150E0BE016F5F7F4FCE0199
:1009B00045960E948401882309F4C7C0F2E0AF166F
:1009C000B10409F4A1C00CF054C091E0A916B1041F
:1009D00009F0B7C0CE0101960E949C1D2B013C017D
:1009E0000E949E1B4B01882777FD8095982F0E94BF
:1009F000D11B6B017C019B01AC01C301B2010E94C0
:100A0000CD1A0E94A31BE8A1F9A17183608320E0A5
:100A100030E048EC52E4C701B6010E94131C0E946A
:100A2000A31BEAA1FBA1608344E6E42EF12CC401E0
:100A3000B7010E94481D6B01882777FD8095982F8C
:100A40000E94D11B20E030E048EC52E40E94131CCD
:100A50000E94A31BECA1FDA16083C601B7010E9407
:100A6000481DEEA1FFA160830E947007E8A5F9A5CB
:100A700066C0E8E0AE16B10409F452C0F9E0AF1662
:100A8000B10409F05EC0CE0101960E94A01D6C0168
:100A9000EE24D7FCE094FE2CC701B6010E94CF1BC8
:100AA00020E030E048EC52E40E94131C0E94A31B9B
:100AB000E88DF98D6083C701B60124E630E040E09F
:100AC00050E00E945C1D69017A01CA01B9010E94CF
:100AD000CF1B20E030E048EC52E40E94131C0E943F
:100AE000A31BEA8DFB8D6083C701B60124E630E0CD
:100AF00040E050E00E945C1DEC8DFD8D20830E9443
:100B00007007EE8DFF8D1BC08981813421F481E057
:100B1000F101808316C08635A1F4F101108211C065
:100B2000CE0101960E949C1D0E94A31BF801778BA9
:100B3000668B0E947007F801758F648F02C0718305
:100B40006083FFEFAF1ABF0A2DCFA9960FB6F894B6
:100B5000DEBF0FBECDBFDF91CF911F910F91FF90F0
:100B6000EF90DF90CF90BF90AF909F908F907F904D
:100B70006F905F904F903F902F900895EF92FF926B
:100B80000F931F93CF93DF93CDB7DEB767970FB661
:100B9000F894DEBF0FBECDBF8C018F569F4F9E8B4A
:100BA0008D8B8CE28F8BE12CF12C44E150E0BE0167
:100BB0006F5F7F4FCE0145960E948401882309F420
:100BC0004EC085E0E816F104E9F0E7E0EE16F10426
:100BD00071F1F1E0EF16F104F1F5CE0101960E94FA
:100BE0009C1D20E030E048EC52E40E94E11C0E9491
:100BF000A31BF801778B668B0E947007F801758F35
:100C0000648F29C0CE0101960E949C1D20E030E037
:100C100048EC52E40E94E11C0E94A31BF801718F72
:100C2000608F0E947007F801778F668F14C0CE0125
:100C300001960E949C1D20E030E048EC52E40E94A6
:100C4000E11C0E94A31BF801758B648B0E94700746
:100C5000F801738F628FFFEFEF1AFF0AA6CF679636
:100C60000FB6F894DEBF0FBECDBFDF91CF911F91BD
:100C70000F91FF90EF90089560335CF06A3314F4A5
:100C800080ED05C08FEB860F863018F489EC860F57
:100C9000089580E00895CF92DF92EF92FF920F9334
:100CA0001F93CF93DF93EC01DC01AF56BF4FFD01E3
:100CB00001900020E9F73197EA1BFB0B8F010550EB
:100CC0001109DC01A00FB11FAF56BF4F8C918A32C2
:100CD00071F57E01EE0EFF1EF701E357FF4F6081B5
:100CE000CE010E943C0690E1899F60011124F7012A
:100CF000E257FF4F6081CE010E943C069601280F0B
:100D0000311D41E0842F90E08017910768F48C0F2B
:100D10009D1FFC01EF56FF4F8081992787FD90951D
:100D2000282739274F5FEECF81E0232B09F080E0A1
:100D3000DF91CF911F910F91FF90EF90DF90CF90B7
:100D40000895FF920F931F93CF93DF93EC010E94BE
:100D50004B06F82E882309F43FC08E010F561F4F13
:100D600046E050E068E072E0C8010E94331E892B23
:100D700019F4CE010E94B90146E050E06FE072E044
:100D8000C8010E94331E892B19F4CE010E9458031A
:100D900046E050E066E172E0C8010E94331E892BF4
:100DA00019F4CE010E94E00346E050E06DE172E0EC
:100DB000C8010E94331E892B19F4CE010E948C04B5
:100DC00046E050E064E272E0C8010E94331E892BC5
:100DD00019F4CE010E94BE058F2DDF91CF911F9196
:100DE0000F91FF9008950F931F93CF93DF93EC0122
:100DF0008C01075F1E4FF8018081FE01E80FF11D95
:100E0000EF56FF4F60838F5FF80180836A3069F48B
:100E1000CE010E94A106CF56DF4F98E7FE01119246
:100E20009A95E9F7F80110820CC0883748F0CF5640
:100E3000DF4F88E7FE0111928A95E9F7F8011082E9
:100E400080E0DF91CF911F910F9108951F920F9233
:100E50000FB60F9211242F933F938F939F93AF93CD
:100E6000BF9380917D0390917E03A0917F03B09109
:100E7000800330917C0323E0230F2D3720F401966B
:100E8000A11DB11D05C026E8230F0296A11DB11DAD
:100E900020937C0380937D0390937E03A0937F0334
:100EA000B09380038091810390918203A09183038A
:100EB000B09184030196A11DB11D8093810390938D
:100EC0008203A0938303B0938403BF91AF919F915A
:100ED0008F913F912F910F900FBE0F901F901895FB
:100EE0002FB7F89460917D0370917E0380917F030A
:100EF000909180032FBF08953FB7F89480918103AC
:100F000090918203A0918303B091840326B5A89B9E
:100F100005C02F3F19F00196A11DB11D3FBF6627E7
:100F2000782F892F9A2F620F711D811D911D42E02C
:100F3000660F771F881F991F4A95D1F70895CF92A2
:100F4000DF92EF92FF92CF93DF936B017C010E94BF
:100F50007C07EB01C114D104E104F10479F00E9493
:100F60007C076C1B7D0B683E7340A0F381E0C81AC0
:100F7000D108E108F108C851DC4FECCFDF91CF91E7
:100F8000FF90EF90DF90CF9008950197009739F090
:100F9000880F991F880F991F02970197F1F70895FD
:100FA000789484B5826084BD84B5816084BD85B544
:100FB000826085BD85B5816085BDEEE6F0E080810B
:100FC00081608083E1E8F0E010828081826080832C
:100FD000808181608083E0E8F0E0808181608083AF
:100FE000E1EBF0E0808184608083E0EBF0E08081E1
:100FF00081608083E1E9F0E080818260808380818C
:1010000081608083E0E9F0E0808181608083E1EAB3
:10101000F0E0808182608083808181608083E0EA6B
:10102000F0E0808181608083E1E2F1E08081826094
:101030008083808181608083E0E2F1E08081816053
:101040008083EAE7F0E08081846080838081826031
:10105000808380818160808380818068808310921A
:10106000C10008950E94D0070E94F100C1EBD4E1B5
:101070000E9401012097E1F30E94B114F9CFCF92B1
:10108000DF92EF92FF920F931F93CF93DF936C0148
:101090007A01EB01E60EF71E00E010E0CE15DF0549
:1010A00061F06991D601ED91FC910190F081E02D04
:1010B000C6011995080F191FF1CFC801DF91CF9113
:1010C0001F910F91FF90EF90DF90CF9008956115E1
:1010D000710581F0DB010D900020E9F7AD01415071
:1010E0005109461B570BDC01ED91FC910280F38105
:1010F000E02D199480E090E00895EF92FF920F9315
:101100001F93CF93DF938C01FB01C0E0D0E064918B
:101110007F018FEFE81AF80A662361F0D801ED919C
:10112000FC910190F081E02DC8011995C80FD91FDD
:10113000F701EDCFCE01DF91CF911F910F91FF907D
:10114000EF900895AF92BF92CF92DF92EF92FF920D
:101150000F931F93CF93DF937C016B01C0E0D0E02E
:1011600000E010E0D60114968D919C911597C81758
:10117000D90788F4D701ED91FC91A080B180BE0120
:10118000C6010E944410682FC701F5011995080F88
:10119000191F2196E7CFC801DF91CF911F910F91C1
:1011A000FF90EF90DF90CF90BF90AF9008950C9498
:1011B0006708DC01ED91FC910190F081E02D19941C
:1011C000DB01ED91FC9111970190F081E02DBC01C4
:1011D000CD0119940F931F93CF93DF93EC016DE032
:1011E0000E94D9088C016AE0CE010E94D908800FC4
:1011F000911FDF91CF911F910F9108950F931F932E
:10120000CF93DF93EC010E947D088C01CE010E94F8
:10121000EA08800F911FDF91CF911F910F910895E0
:101220000F931F93CF93DF93EC010E94A2088C01D0
:10123000CE010E94EA08800F911FDF91CF911F918C
:101240000F9108950F931F93CF93DF93EC010E94AA
:1012500067088C01CE010E94EA08800F911FDF9180
:10126000CF911F910F9108950F931F93CF93DF9309
:10127000EC010E94D9088C01CE010E94EA08800F7F
:10128000911FDF91CF911F910F9108950F931F939D
:10129000CF93DF93EC010E94E0088C01CE010E9405
:1012A000EA08800F911FDF91CF911F910F91089550
:1012B0008F929F92AF92BF92CF92DF92EF92FF9266
:1012C0000F931F93CF93DF93CDB7DEB7A1970FB6E0
:1012D000F894DEBF0FBECDBF7C01C42EE52FCB013D
:1012E000D22E19A221E02D1510F02AE0D22E8E0167
:1012F0000F5D1F4F8D2C912CA12CB12C6C2D7E2FAE
:10130000A50194010E945C1D8C2DD29E8019112490
:10131000015011098A3014F4805D01C0895CF80124
:101320008083211531054105510521F0C22EE32F9F
:10133000CA01E4CFB801C7010E946708A1960FB6A1
:10134000F894DEBF0FBECDBFDF91CF911F910F91FB
:10135000FF90EF90DF90CF90BF90AF909F908F90D5
:101360000895CF92DF92EF92FF920F931F93CF9346
:10137000DF93EC016A017B012115310579F4E881E5
:10138000F9810190F081E02D642FDF91CF911F91C1
:101390000F91FF90EF90DF90CF9019942A30310594
:1013A000E9F477FF1AC06DE20E94D9088C01442746
:1013B0005527BA014C195D096E097F092AE0CE0153
:1013C0000E945809800F911FDF91CF911F910F91BB
:1013D000FF90EF90DF90CF9008952AE0B701A6012B
:1013E000CE01DF91CF911F910F91FF90EF90DF9091
:1013F000CF900C9458099A01AB01662757FD609570
:10140000762F0C94B1090F931F93CF93DF93EC01C8
:101410009A01AB01662757FD6095762F0E94B109AE
:101420008C01CE010E94EA08800F911FDF91CF91BD
:101430001F910F9108950F931F93CF93DF93EC01AA
:101440000E94B1098C01CE010E94EA08800F911F11
:10145000DF91CF911F910F9108952115310541F42E
:10146000DC01ED91FC910190F081E02D642F199445
:101470000C9458099A01462F50E060E070E00C94FB
:101480002D0A0F931F93CF93DF93EC019A01462F00
:1014900050E060E070E00E942D0A8C01CE010E94B5
:1014A000EA08800F911FDF91CF911F910F9108954E
:1014B0009A01AB0160E070E00C942D0A0F931F932A
:1014C000CF93DF93EC019A01AB0160E070E00E94E2
:1014D0002D0A8C01CE010E94EA08800F911FDF9136
:1014E000CF911F910F9108950F931F93CF93DF9387
:1014F000EC010E942D0A8C01CE010E94EA08800FA7
:10150000911FDF91CF911F910F9108954F925F929C
:101510006F927F928F929F92AF92BF92CF92DF9203
:10152000EF92FF920F931F93CF93DF93EC016A0129
:101530007B01B22E9A01AB01C701B6010E94441D86
:10154000882319F06BE272E027C026013701E89486
:1015500077F82FEF3FEF4FE75FE7C301B2010E943B
:10156000441D81110DC02FEF3FEF4FE75FE7C3012F
:10157000B2010E94321B18161CF46FE272E00CC01C
:101580002FEF3FEF4FE75FE4C701B6010E94DD1C7C
:101590001816ACF463E372E0CE01DF91CF911F9196
:1015A0000F91FF90EF90DF90CF90BF90AF909F9002
:1015B0008F907F906F905F904F900C9467082FEF03
:1015C0003FEF4FE75FECC701B6010E94321B87FD7A
:1015D000E1CF20E030E0A901C701B6010E94321B33
:1015E00087FF0AC06DE2CE010E94D9088C01F7FA8C
:1015F000F094F7F8F09402C000E010E0A12C60E055
:1016000070E080E09FE3AB1441F020E030E040E286
:1016100051E40E94361BA394F6CF9B01AC01C70195
:10162000B6010E94CE1A6B017C010E94A31B2B0104
:101630003C010E94CF1B9B01AC01C701B6010E9477
:10164000CD1A6B017C012AE0B301A201CE010E94F8
:101650005809080F191FBB2039F067E372E0CE016B
:101660000E946708080F191F7B2C772041F120E0AA
:1016700030E040E251E4C701B6010E94E11C6B0179
:101680007C010E949E1B4B01AA2497FCA094BA2CBB
:101690002AE030E0B501A401CE010E94B109080F93
:1016A000191FC501B4010E94D11B9B01AC01C701E8
:1016B000B6010E94CD1A6B017C017A94D6CFC80185
:1016C000DF91CF911F910F91FF90EF90DF90CF901E
:1016D000BF90AF909F908F907F906F905F904F9052
:1016E00008950C94860A0F931F93CF93DF93EC0118
:1016F0000E94860A8C01CE010E94EA08800F911F89
:10170000DF91CF911F910F9108950C94751E0C9449
:101710008B1E0C94EF1E0C94C21EFC0180819181E3
:101720000C943E19CF93DF93EC0188819981009747
:1017300011F00E943E19198218821D821C821B82A0
:101740001A82DF91CF9108950F931F93CF93DF9368
:10175000EC018B016F5F7F4F888199810E94CD19C9
:10176000009731F0998388831B830A8381E001C04D
:1017700080E0DF91CF911F910F910895CF93DF9378
:10178000EC0188819981892B29F08A819B818617B8
:10179000970760F4CE010E94A40B882341F08C814E
:1017A0009D81892B19F4E881F981108281E0DF9114
:1017B000CF910895EF92FF920F931F93CF93DF93F2
:1017C000EC017B018A01BA010E94BE0B811104C0A9
:1017D000CE010E94920B07C01D830C83B701888144
:1017E00099810E942C1ECE01DF91CF911F910F9104
:1017F000FF90EF900895FC011182108213821282F3
:101800001582148216826115710559F0FB01019051
:101810000020E9F7AF0141505109461B570B0C94CA
:10182000DA0B0895CF93DF93EC01FB01861797073E
:1018300061F0608171816115710529F044815581E4
:101840000E94DA0B02C00E94920BCE01DF91CF9171
:101850000895FC0111821082138212821582148273
:1018600016820C94120CCF93DF93EC016115710575
:1018700061F0FB0101900020E9F7AF0141505109EF
:10188000461B570B0E94DA0B02C00E94920BCE013E
:10189000DF91CF910895CF93DF931F921F92CDB721
:1018A000DEB7FC011182108213821282158214822B
:1018B000168269831A82BE016F5F7F4F0E94330CCC
:1018C0000F900F90DF91CF9108950F931F93CF93B7
:1018D000DF93CDB7DEB729970FB6F894DEBF0FBE02
:1018E000CDBF8C01862FF8011182108213821282E3
:1018F00015821482168250E0BE016F5F7F4F90E028
:101900000E94EF1EBE016F5F7F4FC8010E94330C23
:1019100029960FB6F894DEBF0FBECDBFDF91CF91F1
:101920001F910F9108950F931F93CF93DF93CDB71E
:10193000DEB762970FB6F894DEBF0FBECDBF8C0145
:10194000CB01F80111821082138212821582148257
:10195000168250E0BE016F5F7F4F0E94751EBE0170
:101960006F5F7F4FC8010E94330C62960FB6F894E8
:10197000DEBF0FBECDBFDF91CF911F910F910895B4
:101980000F931F93CF93DF93CDB7DEB761970FB659
:10199000F894DEBF0FBECDBF8C01CB01F8011182E0
:1019A00010821382128215821482168250E0BE01C8
:1019B0006F5F7F4F0E94EF1EBE016F5F7F4FC801B8
:1019C0000E94330C61960FB6F894DEBF0FBECDBFF8
:1019D000DF91CF911F910F9108950F931F93CF9394
:1019E000DF93CDB7DEB7A2970FB6F894DEBF0FBE78
:1019F000CDBF8C01CB01BA01F80111821082138294
:101A0000128215821482168230E0AE014F5F5F4F62
:101A10000E948B1EBE016F5F7F4FC8010E94330C76
:101A2000A2960FB6F894DEBF0FBECDBFDF91CF9167
:101A30001F910F9108950F931F93CF93DF93CDB70D
:101A4000DEB7A1970FB6F894DEBF0FBECDBF8C01F5
:101A5000CB01BA01F8011182108213821282158221
:101A60001482168230E0AE014F5F5F4F0E94C21EAB
:101A7000BE016F5F7F4FC8010E94330CA1960FB665
:101A8000F894DEBF0FBECDBFDF91CF911F910F91B4
:101A90000895EF92FF920F931F93CF93DF93EC0182
:101AA0007B010C811D816115710511F480E016C068
:101AB0004115510591F0040F151FB8010E94BE0B8E
:101AC0008823A1F3288139818C819D81B701820F00
:101AD000931F0E942C1E1D830C8381E0DF91CF9108
:101AE0001F910F91FF90EF900895FB014481558164
:101AF000608171810C94490D6115710559F0FB01EC
:101B000001900020E9F7AF0141505109461B570BE6
:101B10000C94490D80E00895CF93DF931F921F929C
:101B2000CDB7DEB769831A8241E050E0BE016F5F36
:101B30007F4F0E94490D0F900F90DF91CF91089534
:101B4000EF92FF920F931F93CF93DF9300D01F92DA
:101B5000CDB7DEB77C01862F4AE050E08E010F5FE3
:101B60001F4FB80190E00E94751EF80101900020FF
:101B7000E9F7AF0141505109401B510BB801C701B2
:101B80000E94490D0F900F900F900F90DF91CF9111
:101B90001F910F91FF90EF900895EF92FF920F9396
:101BA0001F93CF93DF93CDB7DEB727970FB6F89487
:101BB000DEBF0FBECDBF7C01CB014AE050E08E01FD
:101BC0000F5F1F4FB8010E94751EF80101900020A1
:101BD000E9F7AF0141505109401B510BB801C70152
:101BE0000E94490D27960FB6F894DEBF0FBECDBFF9
:101BF000DF91CF911F910F91FF90EF900895EF9299
:101C0000FF920F931F93CF93DF9300D000D0CDB7F7
:101C1000DEB77C01CB014AE050E08E010F5F1F4F21
:101C2000B8010E94EF1EF80101900020E9F7AF0112
:101C300041505109401B510BB801C7010E94490D89
:101C400026960FB6F894DEBF0FBECDBFDF91CF91C1
:101C50001F910F91FF90EF900895EF92FF920F93D5
:101C60001F93CF93DF93CDB7DEB72C970FB6F894C1
:101C7000DEBF0FBECDBF7C01CB01BA012AE030E050
:101C80008E010F5F1F4FA8010E948B1EF80101906B
:101C90000020E9F7AF0141505109401B510BB80139
:101CA000C7010E94490D2C960FB6F894DEBF0FBEF7
:101CB000CDBFDF91CF911F910F91FF90EF900895CD
:101CC000EF92FF920F931F93CF93DF93CDB7DEB7C1
:101CD0002B970FB6F894DEBF0FBECDBF7C01CB01B2
:101CE000BA012AE030E08E010F5F1F4FA8010E9469
:101CF000C21EF80101900020E9F7AF0141505109DF
:101D0000401B510BB801C7010E94490D2B960FB61D
:101D1000F894DEBF0FBECDBFDF91CF911F910F9121
:101D2000FF90EF900895CF93DF93EC01FB01448186
:101D30005581608171810E94490D811103C0CE01DE
:101D40000E94920BCE01DF91CF910895CF93DF9344
:101D5000EC016115710569F0FB0101900020E9F7C4
:101D6000AF0141505109461B570B0E94490D81118B
:101D700003C0CE010E94920BCE01DF91CF91089556
:101D8000CF93DF93EC010E948C0D811103C0CE0133
:101D90000E94920BCE01DF91CF910895CF93DF93F4
:101DA000EC010E94A00D811103C0CE010E94920B94
:101DB000CE01DF91CF910895CF93DF93EC010E9484
:101DC000CD0D811103C0CE010E94920BCE01DF9197
:101DD000CF910895CF93DF93EC010E94FF0D811105
:101DE00003C0CE010E94920BCE01DF91CF910895E6
:101DF000CF93DF93EC010E942D0E811103C0CE0121
:101E00000E94920BCE01DF91CF910895CF93DF9383
:101E1000EC010E94600E811103C0CE010E94920B62
:101E2000CE01DF91CF910895CF93DF93DC01ED9147
:101E3000FC91EB01A881B981309711F01097C9F49A
:101E4000109759F0EB012C813D81232B31F08C91BF
:101E500090E091958195910914C0309781F0DC0153
:101E600014968D919C911597892B49F0808190E073
:101E700008C0BD01CF01DF91CF910C94231E80E0FB
:101E800090E0DF91CF910895FC0144815581FB01E1
:101E9000248135814217530741F40E94140F21E039
:101EA000892B09F020E0822F089580E00895FC013D
:101EB00024813581232B31F421E061157105A1F0D6
:101EC000FB0108C0FC01808191816115710531F42D
:101ED00021E0FC018081882339F005C00E94231E87
:101EE00021E0892B09F020E0822F08950E94140F31
:101EF000892F881F8827881F08950E94140F21E0CA
:101F0000181619060CF020E0822F08950E94140F75
:101F100021E0181619060CF420E0822F08950E9483
:101F2000140F892F8095881F8827881F0895EF92A6
:101F3000FF920F931F93CF93DF938617970731F18B
:101F4000FC0124813581FB0144815581241735072B
:101F5000F9F4232BD9F0FC0100811181FB01C08130
:101F6000D181F80181918F01882381F0992787FD24
:101F700090950E94ED1D7C018991992787FD909590
:101F80000E94ED1DE816F90661F302C081E001C070
:101F900080E0DF91CF911F910F91FF90EF90089516
:101FA000FA01DB0114964D915C911597DC011496B2
:101FB0002D913C911597241B350B2E173F0788F068
:101FC0008D919C91009769F0DB016D917C91611579
:101FD000710539F08E0F9F1F0E94331E21E0892B5F
:101FE00009F020E0822F0895FC0144815581FB0116
:101FF000248135814217530720F040E050E00C94D3
:10200000D00F80E00895FC0184819581DB01149656
:102010004D915C9115978417950798F02081318137
:102020002115310571F06D917C916115710549F0B3
:10203000841B950B820F931F0E94231E21E0892B86
:1020400009F020E0822F0895DC0114962D913C9137
:1020500015976217730728F4ED91FC91E60FF71FAF
:1020600040830895FC01848195816817790720F4E5
:1020700080819181009729F41092850385E893E08F
:102080000895860F971F0895FC01248135816217FA
:10209000730748F480819181009729F0FC01E60FD5
:1020A000F71F8081089580E008950C9444100F93E9
:1020B0001F93CF93DF93EB0141155105E9F0209772
:1020C000D9F0FC016481758126173707A0F4621BE3
:1020D000730B8A01015011096017710708F48B0115
:1020E000FC0160817181620F731FA801CE010E9403
:1020F000411EC00FD11F1882DF91CF911F910F9108
:102100000895CF93DF93FC01848195814817590787
:1021100078F4C081D181772767FD7095CE01840F57
:10212000951F0E94181E009719F08C1B9D0B02C072
:102130008FEF9FEFDF91CF91089540E050E00C9436
:102140008110CF93DF93FC01848195814817590753
:1021500078F4C081D181FB0160817181CE01840F4F
:10216000951F0E945B1E009719F08C1B9D0B02C0EF
:102170008FEF9FEFDF91CF91089540E050E00C94F6
:10218000A110DF92EF92FF920F931F93CF93DF93F3
:10219000EC018C819D814817590718F08FEF9FEF54
:1021A0001BC08A010F5F1F4FE881F981E00FF11F0B
:1021B000D0801082E880F980772767FD7095C7018D
:1021C0000E94501EF701E00FF11FD082009731F3FB
:1021D00028813981821B930BDF91CF911F910F9141
:1021E000FF90EF90DF900895FC01448155814150AC
:1021F00051090C94C110AF92BF92CF92DF92EF922F
:10220000FF920F931F93CF93DF937B01EA01FB01B2
:10221000448155814115510569F1FC0124813581C5
:102220002115310539F12417350720F1C217D307DD
:1022300010F0E9012197FC0100811181C801AA2455
:10224000AA94BB24BA946801CC0EDD1EC816D90628
:10225000A0F0F701608171810E945B1E009769F018
:102260009C01201B310BC217D30708F4950101967E
:102270005901ECCF8FEF9FEF01C0C501DF91CF91E6
:102280001F910F91FF90EF90DF90CF90BF90AF9094
:102290000895FC0144815581FB0124813581421B55
:1022A000530B0C94FB10BF92CF92DF92EF92FF92F0
:1022B0000F931F93CF93DF936C017B01EA01890198
:1022C0002417350720F48D2FE901042F182F67E01C
:1022D00072E0C6010E94FB0BD70114968D919C9170
:1022E00015978C179D07C8F08017910708F48C018B
:1022F000D701ED91FC911197E00FF11FB080108292
:102300006D917C916C0F7D1FC6010E94330CD7012B
:10231000ED91FC91E00FF11FB082C601DF91CF91EA
:102320001F910F91FF90EF90DF90CF90BF90089595
:10233000CF93DF93EC01FB01248135810E9453117F
:10234000CE01DF91CF910895DC01ED91FC913097A2
:1023500029F40895861301C040833196808181114C
:10236000F9CF08952F923F924F925F926F927F9292
:102370008F929F92AF92BF92CF92DF92EF92FF9295
:102380000F931F93CF93DF93EC015B017A014C8095
:102390005D804114510409F4C5C0FB01648075805F
:1023A0006114710409F4BEC0FA01C480D580C61856
:1023B000D70808811981C114D104C1F4F5016081E5
:1023C0007181C8010E945B1EEC01009709F4AAC04C
:1023D000F7016081718144815581CE010E94FD1D0C
:1023E000F701048115810C0F1D1FE8CFD7FC05C034
:1023F000FB0120803180420143C04801F50160812A
:102400007181C8010E945B1E2C01009719F13201F5
:10241000601A710AA301B801C4010E94FD1D680C75
:10242000791CF7016081718144815581C3010E944B
:10243000FD1DF70184809580860C971CF5010481B1
:102440001581040D151D8C819D818C0D9D1D9D8315
:102450008C83D4CFB801C401DF91CF911F910F912C
:10246000FF90EF90DF90CF90BF90AF909F908F90B4
:102470007F906F905F904F903F902F900C942C1E08
:10248000B101C8010E945B1E009731F08C01060D5E
:10249000171D8C0C9D1CF4CF8414950409F442C0C4
:1024A0008A819B818815990530F4B401CE010E9480
:1024B000A40B8823B9F14C815D814150510957FD2E
:1024C00031C0B501CE010E94FB108C0197FD2AC0DE
:1024D00088819981F50124813581200F311F820F78
:1024E000931F4C815D81421B530BBC018C0D9D1DC4
:1024F0000E94061E8C819D818C0D9D1D9D838C8369
:10250000E881F981E80FF91F108288819981F7012C
:102510006081718144815581800F911F0E94FD1D52
:10252000A801CBCFDF91CF911F910F91FF90EF903A
:10253000DF90CF90BF90AF909F908F907F906F90E3
:102540005F904F903F902F900895CF93DF93FC01C1
:10255000C081D181209751F08881882339F0992753
:1025600087FD90950E94ED1D8993F6CFDF91CF9165
:102570000895CF93DF93FC01C081D181209751F062
:102580008881882339F0992787FD90950E94F51D51
:102590008993F6CFDF91CF910895AF92BF92CF92FA
:1025A000DF92EF92FF920F931F93CF93DF937C0103
:1025B000DC01CD90DC901197C114D10409F441C025
:1025C0001496CD91DC9115972097D9F1560185018C
:1025D000BFEFAB1ABB0AF8018081992787FD909560
:1025E0000E94E51D892B99F72197CC0DDD1D88816F
:1025F000992787FD90950E94E51D892B91F4AE01E6
:102600004F5F5F4F401B510BD70115965C934E9364
:102610001497C016D10650F4B801C6010E94FD1DE2
:1026200005C0C017D10758F32197E1CFD701ED912D
:10263000FC91119714968D919C911597E80FF91FB5
:102640001082DF91CF911F910F91FF90EF90DF905B
:10265000CF90BF90AF900895FC0180819181009749
:1026600011F00C94BE1D60E070E0CB010895FC01F8
:1026700024853585F901E05CFF4F80819181329698
:1026800020813181821B930B8F7399270895FC0160
:1026900084859585FC01E05CFF4F40815181329635
:1026A000208131814217530741F00190F081E02DE4
:1026B000E80FF91F808190E008958FEF9FEF089554
:1026C000FC0184859585FC01E05CFF4F40815181D0
:1026D0003296208131814217530779F0A081B18170
:1026E000A80FB91F8C91208131812F5F3F4F2F732D
:1026F00033273183208390E008958FEF9FEF089573
:10270000FC0181A1882329F0A489B5898C9186FFD9
:10271000FBCF11A20895CF93DF93FC012685378567
:10272000D901A05CBF4F8D919C91119701968F7339
:102730009927E901CE5BDF4F4881598184179507BE
:10274000D9F30D90BC91A02DA20FB31F6C93A68559
:10275000B785A05CBF4F11969C938E93A689B789CD
:102760002C9181E090E0078C02C0880F991F0A9499
:10277000E2F7282B2C9381E081A30488F589E02DD2
:1027800080818064808381E090E0DF91CF91089523
:10279000FB01E05CFF4F208131812F5F3F4F2F73A2
:1027A0003327DB01AE5BBF4F4D915C91241735079A
:1027B00039F0A081B181A60FB71F8C93318320839C
:1027C000089508951F920F920FB60F9211240BB621
:1027D0000F922F933F934F935F936F937F938F93BA
:1027E0009F93AF93BF93EF93FF938091C00082FDBF
:1027F00007C08091C6006AEE75E00E94C81302C04F
:102800008091C600FF91EF91BF91AF919F918F9101
:102810007F916F915F914F913F912F910F900BBEE0
:102820000F900FBE0F901F90189508951F920F9252
:102830000FB60F9211240BB60F922F933F934F9325
:102840005F936F937F938F939F93AF93BF93EF9318
:10285000FF938091C80082FD07C08091CE0062E6A0
:1028600075E00E94C81302C08091CE00FF91EF91E5
:10287000BF91AF919F918F917F916F915F914F9198
:102880003F912F910F900BBE0F900FBE0F901F9096
:10289000189508951F920F920FB60F9211240BB640
:1028A0000F922F933F934F935F936F937F938F93E9
:1028B0009F93AF93BF93EF93FF938091D00082FDDE
:1028C00007C08091D6006AED74E00E94C81302C070
:1028D0008091D600FF91EF91BF91AF919F918F9121
:1028E0007F916F915F914F913F912F910F900BBE10
:1028F0000F900FBE0F901F90189508951F920F9282
:102900000FB60F9211240BB60F922F933F934F9354
:102910005F936F937F938F939F93AF93BF93EF9347
:10292000FF938091300182FD07C08091360162E5FE
:1029300074E00E94C81302C080913601FF91EF91AC
:10294000BF91AF919F918F917F916F915F914F91C7
:102950003F912F910F900BBE0F900FBE0F901F90C5
:1029600018958CEE93E00E943713892B11F00E948A
:10297000E1138AEC93E00E943713892B11F00E9437
:10298000151488EA93E00E943713892B11F00E94F6
:10299000491486E893E00E943713892B11F00C94B8
:1029A0007D1408951F920F920FB60F9211240BB64B
:1029B0000F922F933F938F939F93EF93FF932091C9
:1029C000E6053091E7058091E8059091E905281723
:1029D000390731F48091C1008F7D8093C10014C00C
:1029E000E091E805F091E905EA55FA4F20818091E0
:1029F000E8059091E90501968F7399279093E90571
:102A00008093E8052093C600FF91EF919F918F91ED
:102A10003F912F910F900BBE0F900FBE0F901F9004
:102A200018951F920F920FB60F9211240BB60F92AA
:102A30002F933F938F939F93EF93FF9320915E0586
:102A400030915F05809160059091610528173907E5
:102A500031F48091C9008F7D8093C90014C0E0914A
:102A60006005F0916105E25EFA4F2081809160057A
:102A70009091610501968F739927909361058093DA
:102A800060052093CE00FF91EF919F918F913F9130
:102A90002F910F900BBE0F900FBE0F901F901895A7
:102AA0001F920F920FB60F9211240BB60F922F9315
:102AB0003F938F939F93EF93FF932091D604309190
:102AC000D7048091D8049091D9042817390731F49C
:102AD0008091D1008F7D8093D10014C0E091D80403
:102AE000F091D904EA56FB4F20818091D80490914F
:102AF000D90401968F7399279093D9048093D804B1
:102B00002093D600FF91EF919F918F913F912F914C
:102B10000F900BBE0F900FBE0F901F9018951F9235
:102B20000F920FB60F9211240BB60F922F933F9373
:102B30008F939F93EF93FF9320914E0430914F0416
:102B400080915004909151042817390731F48091F5
:102B500031018F7D8093310114C0E0915004F091D8
:102B60005104E25FFB4F2081809150049091510409
:102B700001968F739927909351048093500420936A
:102B80003601FF91EF919F918F913F912F910F907F
:102B90000BBE0F900FBE0F901F9018958F929F92B3
:102BA000AF92BF92CF92DF92EF92FF920F931F935B
:102BB000CF93DF93CDB7DEB7FC011382128288EE8C
:102BC00093E0A0E0B0E084839583A683B78385E596
:102BD00092E0918380837587648757874687318B1E
:102BE000208B138B028BF58AE48AD78AC68AB18E32
:102BF000A08E938E828E8889848F8989858F8A8919
:102C0000868F8B89878F8C8980A3DF91CF911F91CD
:102C10000F91FF90EF90DF90CF90BF90AF909F907B
:102C20008F900895CF92DF92EF92FF92CF93DF9330
:102C3000EC016A017B01411581EE580761057105C0
:102C4000F9F0EC89FD8981E090E008A002C0880FCE
:102C5000991F0A94E2F7808360E079E08DE390E0C9
:102C6000A70196010E945C1D2150310941095109BB
:102C70005695479537952795211580E1380798F0A7
:102C8000EC89FD89108260E874E88EE190E0A7018C
:102C900096010E945C1D2150310941095109569548
:102CA000479537952795E889F9893083EA89FB8923
:102CB000208319A2EE89FF89408181E090E09C0188
:102CC0000C8C02C0220F331F0A94E2F7422B408380
:102CD000EE89FF8940819C010D8C02C0220F331FB9
:102CE0000A94E2F7422B4083EE89FF8940819C01E0
:102CF0000E8C02C0220F331F0A94E2F7422B40834E
:102D0000EE89FF8920810F8C02C0880F991F0A94D9
:102D1000E2F7809582238083DF91CF91FF90EF903F
:102D2000DF90CF900895BF92CF92DF92EF92FF9203
:102D3000CF93DF93EC016A017B01B22E411581EE46
:102D4000580761057105F9F0EC89FD8981E090E093
:102D500008A002C0880F991F0A94E2F7808360E000
:102D600079E08DE390E0A70196010E945C1D21505F
:102D700031094109510956954795379527952115F0
:102D800080E1380798F0EC89FD89108260E874E8EA
:102D90008EE190E0A70196010E945C1D215031094F
:102DA000410951095695479537952795E889F9893D
:102DB0003083EA89FB892083E88DF98DB082EE8922
:102DC000FF89408181E090E09C010C8C02C0220FC1
:102DD000331F0A94E2F7422B4083EE89FF8940813A
:102DE0009C010D8C02C0220F331F0A94E2F7422B84
:102DF0004083EE89FF8940819C010E8C02C0220F26
:102E0000331F0A94E2F7422B4083EE89FF89208129
:102E10000F8C02C0880F991F0A94E2F780958223D5
:102E20008083DF91CF91FF90EF90DF90CF90BF90A4
:102E30000895CF93DF93FC0186859785DC01A05C24
:102E4000BF4FEC01CE5BDF4F4D915C911197288114
:102E5000398142175307C1F7A689B7894C9181E0A0
:102E600090E09C01048C02C0220F331F0A94E2F709
:102E7000209524232C93A689B7894C919C01058C1D
:102E800002C0220F331F0A94E2F7209524232C93CB
:102E9000A689B7894C919C01068C02C0220F331F72
:102EA0000A94E2F7209524232C93A689B7892C91C4
:102EB000078C02C0880F991F0A94E2F7809582233D
:102EC0008C9384859585FC01EE5BFF4F20813181D9
:102ED000329731832083DF91CF91089581E0089567
:102EE000CF931092EF031092EE0388EE93E0A0E0F0
:102EF000B0E08093F0039093F103A093F203B093BA
:102F0000F30325E532E03093ED032093EC034AEE22
:102F100055E05093F9034093F80346EA55E0509387
:102F2000FB034093FA0345EC50E05093FD034093BC
:102F3000FC0344EC50E05093FF034093FE0340EC4D
:102F400050E0509301044093000441EC50E0509352
:102F500003044093020442EC50E050930504409374
:102F6000040446EC50E05093070440930604C4E088
:102F7000C0930804F3E0F0930904E7E0E0930A0447
:102F800075E070930B0461E060930C041092CD0324
:102F90001092CC038093CE039093CF03A093D003E1
:102FA000B093D1033093CB032093CA0342E655E09C
:102FB0005093D7034093D6034EE155E05093D90385
:102FC0004093D8034DEC50E05093DB034093DA0379
:102FD0004CEC50E05093DD034093DC0348EC50E0B0
:102FE0005093DF034093DE0349EC50E05093E1033C
:102FF0004093E0034AEC50E05093E3034093E20334
:103000004EEC50E05093E5034093E403C093E60395
:10301000F093E703E093E8037093E9036093EA0316
:103020001092AB031092AA038093AC039093AD036C
:10303000A093AE03B093AF033093A9032093A803EA
:103040004AED54E05093B5034093B40346E954E08D
:103050005093B7034093B60345ED50E05093B90346
:103060004093B80344ED50E05093BB034093BA0340
:1030700040ED50E05093BD034093BC0341ED50E060
:103080005093BF034093BE0342ED50E05093C10301
:103090004093C00346ED50E05093C3034093C203F6
:1030A000C093C403F093C503E093C6037093C703B2
:1030B0006093C803109289031092880380938A0357
:1030C00090938B03A0938C03B0938D03309387036D
:1030D0002093860382E594E0909393038093920378
:1030E0008EE094E0909395038093940385E391E0C0
:1030F000909397038093960384E391E090939903D0
:103100008093980380E391E090939B0380939A03CC
:1031100081E391E090939D0380939C0382E391E08F
:1031200090939F0380939E0386E391E09093A10385
:103130008093A003C093A203F093A303E093A4039E
:103140007093A5036093A603CF910895CF93DF9367
:103150008230910510F482E090E0E0913006F09129
:10316000310620E030E0A0E0B0E0309739F1408156
:10317000518148175907B8F04817590771F48281EF
:103180009381109729F013969C938E9312972CC0DD
:10319000909331068093300627C02115310531F018
:1031A0004217530718F0A901DB0101C0EF019A0192
:1031B000BD01DF010280F381E02DD7CF211531055C
:1031C000F9F0281B390B2430310580F48A819B816A
:1031D0006115710521F0FB019383828304C09093F4
:1031E000310680933006FE01329644C0FE01E20FA4
:1031F000F31F8193919322503109398328833AC078
:1032000020912E0630912F06232B41F420910202AB
:103210003091030230932F0620932E062091000256
:10322000309101022115310541F42DB73EB740918F
:10323000040250910502241B350BE0912E06F091FB
:103240002F06E217F307A0F42E1B3F0B28173907B0
:1032500078F0AC014E5F5F4F2417350748F04E0FF2
:103260005F1F50932F0640932E068193919302C0C7
:10327000E0E0F0E0CF01DF91CF910895CF93DF93AD
:10328000009709F487C0FC01329713821282C09123
:103290003006D0913106209781F420813181280FAA
:1032A000391F80912E0690912F068217930779F58A
:1032B000F0932F06E0932E066DC0DE0120E030E093
:1032C000AE17BF0750F412964D915C9113979D0174
:1032D0004115510509F1DA01F3CFB383A28340818F
:1032E0005181840F951F8A179B0771F48D919C91D2
:1032F0001197840F951F02969183808312968D916A
:103300009C911397938382832115310529F4F093BF
:103310003106E09330063EC0D9011396FC93EE933C
:1033200012974D915D91A40FB51FEA17FB0779F431
:1033300080819181840F951F0296D90111969C93EB
:103340008E938281938113969C938E931297E0E0E3
:10335000F0E08A819B81009719F0FE01EC01F9CF22
:10336000CE01029628813981820F931F20912E066B
:1033700030912F062817390769F4309729F41092F5
:1033800031061092300602C013821282D0932F06AB
:10339000C0932E06DF91CF9108956F927F928F9206
:1033A0009F92AF92BF92CF92DF92EF92FF920F93D4
:1033B0001F93CF93DF93EC01CB01209781F4DF9132
:1033C000CF911F910F91FF90EF90DF90CF90BF9022
:1033D000AF909F908F907F906F900C94A618FE01F5
:1033E000E60FF71F9E0122503109E217F30708F498
:1033F000ACC0D9010D911C91119706171707B8F0B1
:103400000530110508F49FC0A80144505109461722
:10341000570708F498C002501109061B170B0193B7
:1034200011936D937C93CF010E943E198CC05B0178
:10343000A01AB10A4E01800E911EA0913006B091E3
:103440003106612C712C60E070E0109709F449C0DE
:10345000A815B905C9F5ED90FC901197670142E0F8
:10346000C40ED11CCA14DB0478F147018A189B08EA
:10347000640142E0C40ED11C1296BC9012971396C0
:10348000AC91B5E0CB16D10440F0B282A383918217
:103490008082D9018D939C9309C00E5F1F4F0E0D42
:1034A0001F1DF90111830083EB2DFA2F61157105A2
:1034B00031F0DB011396FC93EE93129744C0F09326
:1034C0003106E09330063FC06D917C9111976616EE
:1034D000770608F43B01BD0112960D90BC91A02D1A
:1034E000B4CF60912E0670912F0668157905E9F426
:1034F00068167906D0F440910002509101024115FE
:10350000510541F44DB75EB7609104027091050218
:10351000461B570BE417F507C0F4F0932F06E09312
:103520002E06F901918380830EC00E94A6187C01AB
:10353000009759F0A801BE010E94FD1DCE010E9416
:103540003E19C70104C0CE0102C080E090E0DF91C7
:10355000CF911F910F91FF90EF90DF90CF90BF9090
:10356000AF909F908F907F906F9008950C94A618C5
:103570000C94A6180C943E190C943E19FC0181E0A1
:1035800090E02081222311F080E090E0089521E076
:10359000FC0120830895089508955058BB27AA2759
:1035A0000ED0D1C1C2D130F0C7D120F031F49F3F4D
:1035B00011F41EF4B7C10EF4E095E7FB9FC1E92FAB
:1035C000D3D180F3BA17620773078407950718F001
:1035D00071F49EF5EBC10EF4E0950B2EBA2FA02DE1
:1035E0000B01B90190010C01CA01A0011124FF27B0
:1035F000591B99F0593F50F4503E68F11A16F040AB
:10360000A22F232F342F4427585FF3CF46953795A9
:103610002795A795F0405395C9F77EF41F16BA0B6E
:10362000620B730B840BBAF09150A1F0FF0FBB1F1C
:10363000661F771F881FC2F70EC0BA0F621F731F65
:10364000841F48F4879577956795B795F7959E3FC2
:1036500008F0B3CF9395880F08F09927EE0F979550
:103660008795089527D108F481E008950CD06BC1A7
:1036700063D140F05AD130F021F45F3F19F03EC1E0
:10368000511195C14FC170D198F39923C9F35523B6
:10369000B1F3951B550BBB27AA2762177307840745
:1036A00038F09F5F5F4F220F331F441FAA1FA9F3FB
:1036B00033D00E2E3AF0E0E830D091505040E695ED
:1036C000001CCAF729D0FE2F27D0660F771F881F4E
:1036D000BB1F261737074807AB07B0E809F0BB0B3D
:1036E000802DBF01FF2793585F4F2AF09E3F510561
:1036F00068F004C15CC15F3FECF3983EDCF3869553
:1037000077956795B795F7959F5FC9F7880F911DD6
:103710009695879597F90895E1E0660F771F881FC2
:10372000BB1F621773078407BA0720F0621B730B75
:10373000840BBA0BEE1F88F7E095089504D06894C7
:10374000B11135C1089518D188F09F5790F0B92F65
:103750009927B751A0F0D1F0660F771F881F991FE6
:103760001AF0BA95C9F712C0B13081F01FD1B1E09B
:1037700008951CC1672F782F8827B85F39F0B93FAB
:10378000CCF3869577956795B395D9F73EF49095E8
:103790008095709561957F4F8F4F9F4F0895E89466
:1037A00009C097FB3EF490958095709561957F4F89
:1037B0008F4F9F4F9923A9F0F92F96E9BB27939537
:1037C000F695879577956795B795F111F8CFFAF447
:1037D000BB0F11F460FF1BC06F5F7F4F8F4F9F4F78
:1037E00016C0882311F096E911C0772321F09EE8D6
:1037F000872F762F05C0662371F096E8862F70E03C
:1038000060E02AF09A95660F771F881FDAF7880F15
:103810009695879597F9089588D018F011F08CD077
:1038200038F480C0C4C0E92F9FD0B0F35523C9F34A
:10383000E7FB6217730784079507A8F199F3E92F4F
:10384000FF2788232AF03197660F771F881FDAF742
:10385000952F5527442332F091505040220F331FAB
:10386000441FD2F7BB27E91BF50B621B730B840BBC
:10387000B109C1F222F4620F731F841FB11D319789
:103880002AF0660F771F881FBB1FEFCF9150504063
:103890005AF041F0882332F0660F771F881F91504D
:1038A0005040C1F7939530C08695779567959F5F97
:1038B000D9F7F8CF990F0008550FAA0BE0E8FEEFF3
:1038C00016161706E807F907C0F012161306E407E4
:1038D000F50798F0621B730B840B950B39F40A26DD
:1038E00061F0232B242B252B21F408950A2609F4BB
:1038F000A140A6958FEF811D811D089597F99F67BF
:1039000080E870E060E008959F3F31F0915020F42E
:10391000879577956795B795880F911D96958795AB
:1039200097F908959FEF80EC089500240A941616E5
:10393000170618060906089500240A94121613069D
:10394000140605060895092E0394000C11F488232B
:1039500052F0BB0F40F4BF2B11F460FF04C06F5F47
:103960007F4F8F4F9F4F089557FD9058440F551F1D
:1039700059F05F3F71F04795880F97FB991F61F0F1
:103980009F3F79F087950895121613061406551F68
:10399000F2CF4695F1DF08C0161617061806991FD4
:1039A000F1CF86957105610508940895E894BB27C9
:1039B00066277727CB0197F908957CDF08F48FEF0E
:1039C00008950BD0C0CFB1DF28F0B6DF18F09523F3
:1039D00009F094CFA7CF1124EACFC6DFA0F3959FBB
:1039E000D1F3950F50E0551F629FF001729FBB27E6
:1039F000F00DB11D639FAA27F00DB11DAA1F649F92
:103A00006627B00DA11D661F829F2227B00DA11D44
:103A1000621F739FB00DA11D621F839FA00D611DCA
:103A2000221F749F3327A00D611D231F849F600DEB
:103A3000211D822F762F6A2F11249F5750408AF024
:103A4000E1F088234AF0EE0FFF1FBB1F661F771FB0
:103A5000881F91505040A9F79E3F510570F04ECFFE
:103A6000A6CF5F3FECF3983EDCF38695779567959C
:103A7000B795F795E7959F5FC1F7FE2B880F911DCE
:103A80009695879597F9089515DF880B990B0895FA
:103A900097FB072E16F4009407D077FD09D00E94FB
:103AA000881D07FC05D03EF4909581959F4F0895A1
:103AB000709561957F4F0895A1E21A2EAA1BBB1B3A
:103AC000FD010DC0AA1FBB1FEE1FFF1FA217B307EA
:103AD000E407F50720F0A21BB30BE40BF50B661F00
:103AE000771F881F991F1A9469F7609570958095C4
:103AF00090959B01AC01BD01CF010895EE0FFF1F12
:103B00000590F491E02D19940790F691E02D199409
:103B1000AA1BBB1B51E107C0AA1FBB1FA617B707F3
:103B200010F0A61BB70B881F991F5A95A9F780950F
:103B30009095BC01CD010895662777270C94141F3A
:103B4000FC0188279927E89421912032E9F3293054
:103B500010F02E30C8F32B3241F02D3239F4689436
:103B600004C00E94BA1E820F911D219120532A3059
:103B7000C0F31EF4909581959F4F08951F93FC010B
:103B800099278827BC01E89411911032E9F3193084
:103B900010F01E30C8F31B3251F01D3249F4689406
:103BA00006C00E94A51E610F711D811D911D1191FE
:103BB00010531A30B0F33EF490958095709561954E
:103BC0007F4F8F4F9F4F1F91089591119EC280325A
:103BD00019F089508550D0F70895911108958154B6
:103BE0008A5108F4805E855A08959111089581568E
:103BF0008A5108F4805285580895FB01DC0102C007
:103C000001900D9241505040D8F7089568177907F8
:103C100068F4FB01DC01E40FF51FA40FB51F02C01F
:103C200002900E9241505040D8F708950C94FD1D1B
:103C3000FC018191861721F08823D9F799270895EF
:103C40003197CF010895FB01DC018D91019080191E
:103C50000110D9F3990B0895FB01DC0101900D923D
:103C60000020E1F70895FB01DC014150504030F0A5
:103C70008D910190801919F40020B9F7881B990BD8
:103C80000895FB01DC014150504048F001900D9235
:103C90000020C9F701C01D9241505040E0F708953F
:103CA000FC0181E090E00190061609F4CF010020AC
:103CB000D1F701970895FB0151915523A9F0BF0158
:103CC000DC014D9145174111E1F759F4CD01019007
:103CD000002049F04D9140154111C9F3FB014111FC
:103CE000EFCF81E090E0019708954532510520F42F
:103CF000423010F00C94801EFB011082CB0108951D
:103D0000BB274A3031F4992322F4BDE29095819586
:103D10009F4F0C94FB1E2532310520F4223010F009
:103D20000C94961EFA011082CA010895BB272A300E
:103D300051F4992342F4BDE2909580957095619578
:103D40007F4F8F4F9F4F0C94CE1E592F482F372FE8
:103D5000262F660F771F881F991F660F771F881FF2
:103D6000991F620F731F841F951F660F771F881F8F
:103D7000991F08957AE0979F902D879F802D910D30
:103D8000112408952532310520F4223010F00C94CE
:103D9000CD1EFA011082CA010895BB27FA01A62F91
:103DA0006217710581059105330B30FB66F0AA2778
:103DB000660F771F881F991FAA1FA21710F0A21B5A
:103DC00063953850A9F7A05DAA3308F0A95DA193C7
:103DD00036F7B111B1931082CA010C94A02045327C
:103DE000510520F4423010F00C94FA1EFB011082B1
:103DF000CB010895BB27FB015527AA27880F991FE0
:103E0000AA1FA41710F0A41B83955051B9F7A05D09
:103E1000AA3308F0A95DA193009779F7B111B19386
:103E20001192CB010C94A0208F929F92AF92BF92DF
:103E3000CF92DF92EF92FF920F931F93CF93DF9376
:103E40008B016115710521F0DB018C9311969C9318
:103E5000EC015E01BFEFAB1ABB0A7501C8808C2D67
:103E600090E00E94E51D892B11F0E501F2CFEDE213
:103E7000CE1208C07E01F2E0EF0EF11CC980DD24F5
:103E8000D39409C02BE2C21205C07E0142E0E40EC9
:103E9000F11CC980D12CE701219743E050E066E492
:103EA00071E0CE010E948820892BC1F4239645E061
:103EB00050E061E471E0CE010E948820892B09F472
:103EC00025960115110519F0D801CD93DC93D11079
:103ED00006C160E070E080E89FE70AC143E050E07F
:103EE0006EE371E0CE010E948820892B59F4011500
:103EF000110509F4F9C0B2E0EB0EF11CF801F182F2
:103F0000E082F2C0F70160E070E0CB01C0E0D0E0F9
:103F10007F01A0EDAA2EAC0C29E02A1530F14D2D21
:103F20004260B42E2D2D2870D2FE04C0211125C070
:103F3000219623C021112197A5E0B0E09B01AC019F
:103F40000E94B020660F771F881F991F6A0D711D90
:103F5000811D911D6839A9E97A078A07A9E19A07A5
:103F600060F0BD2DB660BB2E08C02EEFA2120AC0B5
:103F7000D3FC50C04D2D4860B42E3196D701CC9063
:103F8000DB2CC6CF2C2D2F7D253409F043C0A0811A
:103F9000AD3241F4BD2DB061DB2E7F0122E0E20E97
:103FA000F11C0CC07F01AB3231F04FEFE41AF40A80
:103FB00021E030E006C0A2E0EA0EF11CA18122E07F
:103FC00030E0A053AA3018F0E21AF30A23C0F70138
:103FD00020E030E02038BCE03B075CF4A901440F4E
:103FE000551F440F551F240F351F220F331F2A0F53
:103FF000311DAF014F5F5F4F7A01A081A053AA30FE
:1040000010F4FA01E7CFD4FE03C0319521953109B0
:10401000C20FD31FD1FE09C00115110531F0E1E037
:10402000EE1AF108D801ED92FC920E94CF1B2D2DC3
:104030002370233019F04B015C0106C04B015C0179
:10404000B7FAB094B7F8B09420E030E0A901C50108
:10405000B4010E94321B882309F43EC0D7FF06C07A
:10406000D195C195D1090DE511E002C005E711E038
:104070006801B8E1CB1AD10890E2E92EF12CCE15F7
:10408000DF0574F0F8012591359145915491C501F2
:10409000B4010E94E11C4B015C01CE19DF09EFCF96
:1040A00004501109F594E7940C151D0541F78A2D6C
:1040B000880F8B2D881F8F3F49F020E030E0A90149
:1040C000C501B4010E94321B811106C082E290E05A
:1040D0009093330680933206C501B40109C060E0B5
:1040E00070E080E89FEF04C060E070E080EC9FE744
:1040F000DF91CF911F910F91FF90EF90DF90CF90C4
:10410000BF90AF909F908F9008959927882708952A
:10411000FB01DC014150504088F08D9181341CF04E
:104120008B350CF4805E659161341CF06B350CF4BA
:10413000605E861B611171F3990B0895881BFCCF9B
:10414000DC01FC01672F71917723E1F7329704C0FE
:104150007C916D9370836291AE17BF07C8F3089589
:104160000E94BB20A59F900DB49F900DA49F800D31
:10417000911D11240895A29FB001B39FC001A39F78
:10418000700D811D1124911DB29F700D811D112490
:08419000911D0895F894FFCF82
:10419800000034068000200024474E474741002491
:1041A800474E475341002447504753560024474E33
:1041B800524D430024474E565447006E616E0069C5
:1041C8006E66006F7666002E0000000000CC1A3F75
:1041D8000800000000CC1A3F08CC1ACC1ACC1ACC24
:1041E8001A000000008B133F083713601347138031
:0241F8001300B2
:00000001FF
